:020000040000fa
:080000000002040000000000f2
:020000040000fa
:1000080056230000362300003a2300003e23000058
:100018004223000056230000562300005623000008
:10002800562300005623000056230000641b0000de
:10003800e80d000056230000562300005623000058
:10004800b01b000056230000562300005623000072
:1000580056230000562300003223000056230000d8
:10006800562300005a23000056230000ac2000004d
:100078005623000056230000562300005623000094
:10008800e20f00005623000056230000562300000c
:100098005623000056230000562300005623000074
:1000a800562300005623000056230000e0180000e5
:1000b8005623000056230000562300005623000054
:1000c8005623000056230000562300005623000044
:1000d8005623000056230000562300005623000034
:1000e8005623000056230000562300005623000024
:1000f8005623000056230000562300005623000014
:100108005623000056230000562300005623000003
:100118005623000056230000562300007c1d0000d3
:1001280056230000562300005623000056230000e3
:1001380056230000562300005623000056230000d3
:1001480056230000562300005623000056230000c3
:1001580056230000562300005623000056230000b3
:1001680056230000562300005623000056230000a3
:100178005623000056230000562300005623000093
:100188005623000056230000562300005623000083
:100198005623000056230000562300005623000073
:1001a8005623000056230000562300005623000063
:1001b8005623000056230000562300005623000053
:1001c8005623000056230000562300005623000043
:1001d8005623000056230000562300005623000033
:1001e8005623000056230000562300005623000023
:0801f80056230000562300000d
:020000040000fa
:1002080056230000462300004a2300004e23000026
:1002180052230000562300005623000056230000f6
:10022800562300005623000056230000641b0000dc
:10023800e80d000056230000562300005623000056
:10024800b01b000056230000562300005623000070
:1002580056230000562300003223000056230000d6
:10026800562300005a23000056230000ac2000004b
:100278005623000056230000562300005623000092
:10028800e20f00005623000056230000562300000a
:100298005623000056230000562300005623000072
:1002a800562300005623000056230000e0180000e3
:1002b8005623000056230000562300005623000052
:1002c8005623000056230000562300005623000042
:1002d8005623000056230000562300005623000032
:1002e8005623000056230000562300005623000022
:1002f8005623000056230000562300005623000012
:100308005623000056230000562300005623000001
:100318005623000056230000562300007c1d0000d1
:1003280056230000562300005623000056230000e1
:1003380056230000562300005623000056230000d1
:1003480056230000562300005623000056230000c1
:1003580056230000562300005623000056230000b1
:1003680056230000562300005623000056230000a1
:100378005623000056230000562300005623000091
:100388005623000056230000562300005623000081
:100398005623000056230000562300005623000071
:1003a8005623000056230000562300005623000061
:1003b8005623000056230000562300005623000051
:1003c8005623000056230000562300005623000041
:1003d8005623000056230000562300005623000031
:1003e8005623000056230000562300005623000021
:0803f80056230000562300000b
:020000040000fa
:100400006fbc20000e6d24000e018800000000006b
:10041000000020000000e000020032000001200087
:10042000200288000c000700406d20000100200021
:1004300011000700000020000000e0000200320070
:100440000000020000000000de0a020000000000c0
:100450000040da000000fe004440a9000000200037
:100460000000e0000300320000002000a00188002e
:100470004440a80000000600910188008000780038
:100480000000eb0015003700e280400032a0b4000d
:100490009101ba00e280400032a0b4009102ba009b
:1004a000e280400032a0b4000002eb00472bde00e7
:1004b000f507b200602ce10004003a000059eb009f
:1004c0008301e900fdff3e00040037006128e100e0
:1004d000010032000082eb00040007001101ba00a5
:1004e0000200e000e8ff3a00000006003159ba00bf
:1004f0008301e9000c0032002159ba008301e900b0
:10050000080032000400e00003003a00e2804000ee
:1005100032a0b400f5ff370011d9ba008301e90019
:10052000faff3a008100e800e180400032a0b40008
:100530000000060028170400000000000021ef0062
:100540001108880020088800000006000a21ef003a
:100550007108880090088800000006001421ef0050
:10056000d1088800f00888001e61a900000006007c
:1005700000088800000006005008880000000600ff
:10058000a008880000000600c008880000000600df
:100590003200f800023b8800910188000008bb008f
:1005a0000500fc0051052000313b8800a10a200015
:1005b000313b880061e7a800000000000000000057
:1005c0003200f900000006000400a100010037001d
:1005d0000400a0003200f8009101880011002400fe
:1005e000013b8800f10f20003208bb000400a70087
:1005f000b20078000198bb008301e900faff3a00dd
:10060000680151000400a700680151006800500013
:100610001208bb00e2ff3700f30f20003200f800a1
:100620009101880031002400013b88000208bb00d2
:100630000388bb00daff37003200f800003b880077
:10064000d7ff37003200f80091018800800278005f
:1006500062004000e08048003549ba003204e00002
:100660000410a700100032008301e9000e003200e0
:100670002549ba003204e0000410a7000a00320045
:100680008301e900080032000408a300eeff3200f5
:1006900015c9ba003204e0000410a70002003200bd
:1006a0008301e900e8ff3a003200f900000006008b
:1006b000839f68000100e00002003d006000100020
:1006c000e08018000300e00002003d00600111001e
:1006d000e0811900050007004f00e00002003b0028
:1006e00060001000e0801800000006006022b800e2
:1006f000060220000000d0008180d2000482d200d7
:100700008582d2000000a0000202520083825a00bb
:10071000030031000202420083824a000000a1006f
:100720000603e900f3ff3a0000000600000278002b
:1007300002003700315a78000201e900e00f510051
:08074000fcff3a000000060076
:020000040000fa
:10074800104278008049eb00e94f52000b003a0054
:100758008002eb00e2cf50008f013a0044bc200039
:1007680014427800e04f52008b0132001040900094
:100778002b0f07001500200087013700e74f5200b4
:100788000b003a008002eb00e1cf500082013a00f2
:1007980004497800e1b720009140780011419800a1
:1007a80024c0b30084497800150020007a0137007e
:1007b80035c3b300854f52000c003a008002eb00ad
:1007c800e1cf500074013a0034c3b3000449780003
:1007d80054bc2000144278001441980024c0b3008f
:1007e80084497800150020006b01370025c3b30049
:1007f800854f52003a003a008002eb00e2cf5000e9
:1008080065013a00e4b7200014427800e04f520036
:1008180005003200e6b720001643780004cbb30089
:10082800844f53005c013a0010409000c5ebb700bc
:10083800880f0700c5cbbf00f60a07000002eb00cf
:100848008304200082ae2000000025001100200053
:100858007aff070022042400000025001100200070
:1008680049ff070054bc2000144278000482fb00b2
:1008780005002000445788005557880016c0b3006b
:1008880085b22000864a7800296bef00c4aa2c00a4
:10089800545988000204200081ae20000080eb003b
:1008a800670e07006102b80064598800755988000e
:1008b8000304200082ae2000000025001100200063
:1008c8003fff07000304200082b220000004250037
:1008d800110020003aff0700150020002e01370004
:1008e80085c4b300854f520029003a0044bc20005b
:1008f800144278008002eb00e04f520026013200db
:10090800e5cf50000d003a00a0409000c808dd0077
:10091800104290000482fb00810272002400200033
:10092800110009008402d80002e224008500780042
:10093800bf0c070015002000170137008002eb00ec
:10094800e8cf500014013a00704190004811dd00d2
:10095800604290000482fb0002017200d0409000c7
:10096800c808dd00404290000482fb00810072004c
:10097800b0429000c82add00204290000482fb00ab
:1009880005007200aa0c07001500200002013700bc
:1009980075c7b300854f52001e003a008002eb0075
:1009a800e6cf5000fc00360044bc2000144278001a
:1009b800e04f5200f8003200104290000482fb0021
:1009c80085a72000954278000443780085a7200079
:1009d800864a780094a7200014427800796aef00cc
:1009e80084a72000144278006142620006003200a9
:1009f800204290000482fb00304090004800dd0057
:100a080000007200670e0700788aa8001500200011
:100a1800e1003700b5c5b300854f520025003a0004
:100a28008002eb00e3cf5000db003a002043900047
:100a3800904290000002eb00e1cf520004003a001f
:100a480076c0b2000682fb000402e9004f22de00f5
:100a58008442780041bc20008548780084c0b300f7
:100a680084497800b5c5b300054978001441980059
:100a780054c0b3002441980044c0b30034419800e6
:100a8800c4cdb3004441980014c0b3005441980049
:100a980074c0b3006441980046bc20001643780037
:100aa8007641980044bc20001442780015002000cc
:100ab800b900370055c6b300854f520015003a00fb
:100ac8008002eb00e8cf5000b3003a0044bc20009d
:100ad80014427800e04f5200af003200704190009d
:100ae800c0409000c808dd00304290000482fb003e
:100af80081007200a0429000c82add0010429000d8
:100b08000482fb0005007200090d07001500200093
:100b1800a100370095c6b300854f520009003a007e
:100b28008002eb00e8cf50009b003a0045bc200053
:100b3800954278008582fb008502ea00cf2ade0014
:100b480095003700f74f520020003a008002eb0072
:100b5800e5cf500090003a0044bc200014427800d1
:100b6800e04f52008c003200e4b7200014427800b5
:100b78006a425200e14f520087003e00a0429000b6
:100b8800c82add00104290000482fb0005027200b2
:100b9800f4538800f5538000c45d2000848f520010
:100ba80003003400f4538800150020007a00370051
:100bb800f65380001500200044a22f00840f530034
:100bc80075003d00f45388007300370025c7b30053
:100bd800854f520020003a008002eb00e3cf50001e
:100be8006d003a0044bc200014427800e04f5200e7
:100bf80069003200e6b720001643780004c5b30048
:100c0800844f530064003a00a0429000c82add00d7
:100c1800104290000482fb0005027200d453880041
:100c2800d553800004082700848f52000300340045
:100c3800d45388001500200057003700d653800091
:100c48001500200004f82800840f530052003d00ce
:100c5800d453880050003700d5c6b300854f5200e2
:100c680021003a008002eb00e5cf50004a003a002c
:100c780044bc200014427800e04f52004600320085
:100c8800e4b7200014427800e64f520042003a00d0
:100c9800a0429000c82add00104290000482fb00a8
:100ca80005027200e4538800e55380000451800077
:100cb800848f520004003400200af8007c0af900ee
:100cc8001500200034003700e4538000200aee00ad
:100cd80015002000800f52002f003d00200aee0072
:100ce800e05388002c003700e5c6b300854f52005a
:100cf80013003a008002eb00e1cf500026003a00d2
:100d080054c0b30084497800e4c6b30004497800ad
:100d180002027800c1a7200091407800016a78009b
:100d2800d5a7200095427800154298000042eb00b4
:100d380044419800344198001500200016003700ff
:100d4800e44f52000c003a0084382100745c88009b
:100d580006302800865c8800f6ff2f00965c880025
:100d680001d02700a15c8800962bef00918aa8008b
:100d780015002000080037008002eb0006c7b3000a
:100d8800864f520004003a0051c0b2008182fb0035
:100d98008502e900cf2ade00050078000000060081
:020000040000fa
:100da800000a000088000000000000007e0b000020
:100db8001a00000002000000b0b2ff00ff080000a7
:100dc80002000a00000c000010000a00008813004e
:100dd8000000000080ffff00ff7f0000e0460000e9
:100de8000800000000000000be0b00000200000028
:100df80000000000300b000032000000020000007c
:100e080000000000000000000002000002010200d3
:100e1800ff0202000200ff000202010002ff0100bf
:100e280000020200020202000202000001ff0200aa
:100e380001020200ff0002000202ff00020102009c
:100e480000000000c00b00000200000000000000cd
:100e5800b80b00000600000000000000b00b000006
:100e68000800000000000000c20b000002000000a3
:100e78000200000001000000980b00000e000000b6
:100e880000000000c40b0000020000000000000089
:100e9800e80a00004800000002000000010000000d
:100ea800000000000000000000000000000000003a
:100eb800000000000000000000000000000000002a
:100ec800000000000000000000000000000000001a
:100ed800000000000000000000000000000000000a
:100ee80000000000000000000000000000000000fa
:100ef800000000000000000000000000a60b000039
:100f08000a000000000000000008000000020000c5
:100f1800020000000000210010422000633084001d
:100f280040a55000c660e7007008810029914a007a
:100f3800a16bb1008cc1ad00d1cee100eff1310061
:100f4800121002007332520022b552009442f70088
:100f580072d6620039931800837bb3005aa3bd0090
:100f6800d39cc300fff3de00e36224004334200077
:100f780004011400e664c70074a4440085546a00a0
:100f8800a54bb5002885090095eee500cff5ac0026
:100f9800c58dd50053367200261116003006d700cd
:100fa80076f666009556b400465bb7007aa7190036
:100fb80097388700dff7fe00e79dd700bcc7c4005d
:100fc80048e558008668a7007840080061180200c4
:100fd80028233800ccc9ed00d98ee900aff94800c4
:100fe800896999000aa92b00b9f55a00d44ab700b3
:100ff8007a966a00711a50000a333a00122afd00e4
:10100800dbdccb00bffb9e00eb799b00588b3b00e1
:10101800bb1aab00a66c87007ce44c00c55c2200c0
:101028002c033c00600c41001caeed008ffdec0071
:10103800cdcddd002aad0b00bd688d00499d970020
:101048007eb66e00d55ef4004e133e00322e51007f
:101058001e700e009fffbe00efdddf00fccf1b00ff
:10106800bf3aaf00599f78008f889100a981ca00c4
:10107800b1eba1000cd12d00c14ef1006fe1800051
:1010880010a10000c230e3002004500025404600b3
:1010980070676000b983980093fba300dab33d0042
:1010a800c31cd3007fe35e00f3b102009012f3008b
:1010b80022d2320035421400527762005672ea009a
:1010c800b5cba500a8958900856ef5004fe52c00e5
:1010d800d50dc500e234c30024a0140081046600c5
:1010e800744764002454050044dba700fab799004c
:1010f80087b897005fe77e00f71dc7003cd7d3008d
:1011080026f236009106b00016576600767615006e
:10111800463456004cd96d00c90ef9002fe9c800b5
:1011280099e989008ab9ab00a944580065480600c6
:1011380078276800c018e10008823800a3287d00dd
:10114800cb5cdb003feb1e00fbf98b00d89bbb00a0
:10115800ab9abb00754a54005a376a00167af100f8
:101168000ad01a00b32a92003a2efd000fed6c0047
:10117800dd4dcd00aabd8b00ade89d00c98d2600d0
:101188007c076c00645c45004ca23c00832ce000aa
:101198001cc10c001fef3e00ff5dcf007cdf9b00f1
:1011a800afbabf00d98ff8009f176e00367e550082
:1011b8004e745e00932eb2003ed10e00f01e000069
:1011c800620b00001c000000000000000047000047
:1011d8008000000000000000804700008000000040
:1011e80000000000880a0000600000000000000005
:0411f80000000000f3
:020000040000fa
:1011fc000003be003064ab000b0032000480200002
:10120c008021800000026200070032003264ab00d3
:10121c000500320004802000912180000102620050
:10122c000080eb00e1003a003064ab0038003a007b
:10123c0003027800824078000601be000070240092
:10124c00e405070064b62000000aeb0014029000cd
:10125c00e20f52000d003c00555b8000e28f520003
:10126c000a003c00665b8000e20f530007003c0064
:10127c0067b620000402e800940398008502e80099
:10128c00a50398000603e800b603980064b6200096
:10129c0014437800e3426300e3826200c6ff2f0030
:1012ac00802180008003630087837200872188007f
:1012bc00a4439000e3836300c83bdd00f5cf2f000f
:1012cc0081218000018062000080730080218800f1
:1012dc00c4439000e383630090218000000363000b
:1012ec0006837300962188006442900063026200ba
:1012fc004822dd009121800081826200850272000b
:10130c00952188003064a8000000eb00a70037008e
:10131c0004802000852180000502620036003a001e
:10132c0003027800824078000601be0000712400a0
:10133c00a8050700682bef00345b8000e20f520019
:10134c000c003c00555b8000e28f520009003c0011
:10135c00665b8000e20f530006003c0067b620007d
:10136c00840be8008502e800a50398000603e8005a
:10137c00b603980064b6200014437800e34263007f
:10138c00e3826200c6ff2f0080218000800363008f
:10139c008783720087218800a4439000e383630055
:1013ac00c83bdd00f5cf2f00812180000180620059
:1013bc000080730080218800c4439000e3836300a5
:1013cc00902180000003630006837300962188003f
:1013dc0064429000630262004822dd00912180008b
:1013ec008182620085027200952188003164a80018
:1013fc000000eb006d0037003264ab0036003a00a1
:10140c0003027800824078000601be0000722400be
:10141c00700507006a2bef00345b8000e20f52006e
:10142c000c003c00455b8000e28f520009003c0040
:10143c00665b8000e20f530006003c0067b620009c
:10144c00840be8008502e800950398000603e80089
:10145c00b603980064b6200014437800e34263009e
:10146c00e3826200c6ff2f008021800080036300ae
:10147c008783720087218800a4439000e383630074
:10148c00c83bdd00f5cf2f00812180000180620078
:10149c000080730080218800c4439000e3836300c4
:1014ac00902180000003630006837300962188005e
:1014bc0064429000630262004822dd0091218000aa
:1014cc008182620085027200952188003264a80036
:1014dc000000eb00350037000302780082407800f2
:1014ec000601be00007324003a0507006c2bef00c8
:1014fc00345b8000e20f52000c003c00455b800026
:10150c00e28f520009003c00565b8000e20f530052
:10151c0006003c0067b62000840be8008502e8005a
:10152c00950398000603e800a603980064b6200013
:10153c0014437800e3426300e3826200c6ff2f008d
:10154c0080218000800363008783720087218800dc
:10155c00a4439000e3836300c83bdd00f5cf2f006c
:10156c00812180000180620000807300802188004e
:10157c00c4439000e3836300902180000003630068
:10158c000683730096218800644290006302620017
:10159c004822dd0091218000818262008502720068
:1015ac00952188003364a8000000eb0000000600c1
:020000040000fa
:1015bc000400fa00889fbe008a9fbe00180807002e
:1015cc00d0080700f7090700a40020003450880059
:1015dc00ab0307008660a9009660a800c70b070044
:1015ec00cc0b07009460a80024a520000300090080
:1015fc00005aeb00916aef000001eb006000b800ac
:10160c008a090700500b07001c090700e00f500067
:10161c0002003200042aef00faff370004aaef00a0
:10162c00da0b0700f4090700e40020000500200095
:10163c00a4bf9f00b5bf9f000002eb004300200039
:10164c006c8157000000250011002000fafb0700f8
:10165c009760a8004ff09700690a070084a7200044
:10166c001442780006c0b30085a72000864a780093
:10167c0095a720009542780095a72000864a78000f
:10168c0044bc200014427800e04f5200fcff3200b2
:10169c0084a720001442780070426200f8ff3200e8
:1016ac0004518000e00f5200f5ff320084a72000a7
:1016bc001442780061426200020032004a080700be
:1016cc0001003700918aa900c3b82000934178002b
:1016dc0012528000515c8000405c8000ab0a070015
:1016ec00af0b07007e6bef0004a020006509200003
:1016fc00350298008082eb00250298000005eb0073
:10170c0009cab3006b092000dc080700e00f500089
:10171c000b00320044a8200014427800e04f520025
:10172c0001003200670b0700e4b72000094a78007b
:10173c0006aaef00e4012000245088000e003700b8
:10174c00c262ab000c003200ba0ba80044a8200007
:10175c0014427800e04f520001003200590b070090
:10176c007e6bef0004a020003b0298008082eb000f
:10177c0025029800e4ff3700ba0ba900e4b720005b
:10178c0014427800e04f520007003200e4b720000a
:10179c0014427800894f520003003200a00b07005e
:1017ac00380b0700050a070024518000840f5500f0
:1017bc00d5ff32002a518000f8b720001844780079
:1017cc00e4b7200014427800894f520010003a0010
:1017dc00e94f5400ccff3a006c0b0700710907006d
:1017ec0005c0b30016a92000054b7800e6b7200011
:1017fc00054b780004a020003b0298008082eb008f
:10180c0025029800843e2000045c8800beff37004f
:10181c00e4b7200014427800e04f520012003a0066
:10182c00e64f540007003200ea4f54000500320026
:10183c00eb4f54000300320004c5b300844f540036
:10184c00b1ff3a0008427800e6b72000044b78005c
:10185c00062aef0004aaef00843e2000045c8800f6
:10186c00f70a0700a8ff3700e4b7200014427800fd
:10187c00e64f52000d003200e4b72000144278000d
:10188c00ea4f520009003200e4b7200014427800fd
:10189c00eb4f520005003200e5b72000954278006e
:1018ac0004c5b30084cf520097ff3a00e04f5400b8
:1018bc0002003200e94f540007003a00010b070008
:1018cc007e6bef0004a020003b0298008082eb00ae
:1018dc00250298008cff3700e64f540007003200b9
:1018ec00ea4f540005003200eb4f54000300320065
:1018fc0004c5b300844f540083ff3a003e0907002f
:10190c00843e2000045c880008437800e5b7200082
:08191c00864a78007cff3700c9
:020000040000fa
:101924000600fa00889fbe008a9fbe008620a90098
:101934000602a80035108000e1826200f41f230033
:1019440003003a00760037000402e900390032004f
:101954000602ab00fcff3a00710037000402e90004
:10196400360032000802ab00fcff3a003504800068
:10197400e2826200f41f230003003200700037008b
:101984000402e9002f0032008620ab00fcff320085
:101994006b003700f40f200094bf9f00a4bf9f008a
:1019a400708057000003eb00f71f2300f1fd2f00a8
:1019b4008620a9000662a80035108000e882620033
:1019c4000702780003003a00630037000402e900cc
:1019d4001e0032000662ab00fcff3a005e003700d6
:1019e4000402e9001b0032000682ab00fcff3a004f
:1019f4006d0037009fbd9700c85ddd002fba9700ca
:101a04008b0572008620a9000642a80035108000cc
:101a1400e4826200f41f230003003a003b00370015
:101a24000402e9000d0032000642ab00fcff3a005c
:101a3400360037000bff2f00090037001bff2f0073
:101a4400070037002bff2f00050037003bff2f0056
:101a5400030037004bff2f00010037005bff2f000e
:101a640007e2a900c902a90004fe2f00826c20002d
:101a740012096200cf02a8000004eb002900200034
:101a8400faef2f00110009000904d80061826000f8
:101a94004822dd0056168000860265008502720029
:101aa400551688000019200001002000f3090700e2
:101ab4000804e800f30f5400f2ff3a0007e2a8001c
:101ac4000019200001002000ec0907008620a9006d
:101ad40004fe2f0062202000120962000642a800c2
:101ae40035108000e4826200f41f230003003a00f2
:101af400310037000402e900030032000642ab0063
:101b0400fcff3a002c003700ebee2e000b007800af
:101b14004f05be004f04be000080fa00000006001e
:101b24008620a900140d20001410880045108000a0
:101b3400e1826200f41f23008aff3a008bff370022
:101b44000400280045108000050262008085eb0037
:101b5400acff3a008fff37008620a90002108000f6
:101b6400022878008620a900060278000410a2004a
:101b740004f0a7000402ea000402e9004f22de0098
:101b84004522dd00321080008282600085027200ee
:101b9400351088000682a80035108000f0826200ab
:101ba4000702780090ff3a000603e800e30f5300b1
:101bb4007fff3a008fff370000192000010020004a
:0c1bc400ae0907006a010700d0ff3700df
:020000040000fa
:101bd0003600f800809fbe00829fbe00849fbe003a
:101be000869fbe00440f200024028800d304070013
:101bf000e552800034002000110009008402d80062
:101c00000054880084a720001442780061426200da
:101c100001003200d2050700d453800045a2de0047
:101c2000cfa2de00745188008551880014a92000dd
:101c300014427800704262002b0032007451800020
:101c4000855180004406b0000580b000800c200063
:101c5000800f5200e08f5a00230036004654800067
:101c600057548000845c8000955c8000840f530092
:101c7000858f5b0007003400445480005554800079
:101c8000845c8800955c880084382100745c88003e
:101c9000150037004654800057548000a45c800033
:101ca000b55c8000840f5300858f5b0007003d000a
:101cb0004054800051548000a05c8800b15c8800d2
:101cc00084382100745c880007003700745c800051
:101cd000e00f5200020032008e2bed0002003700b0
:101ce000918aa900eb0807007051800081518000a3
:101cf0004709070024032000f7ff270016032000f0
:101d0000050037000402e90003003a00bceba8001c
:101d10000109070007003700150e8000e08f520010
:101d200004003d00110e800081826300868f520006
:101d3000f4ff3600045c8000e00f5200060034001f
:101d4000802bed00045c8000e00f520002003a009e
:101d5000bb2ba800f0080700345480000402e80000
:101d600034548800f30f520022003400862aef001a
:101d7000005480000454800000a0b900e6508000a8
:101d8000f7508000c4508000d550800006035000fa
:101d9000878358004638dd004a33de0006037000b2
:101da000cabbde000600420087804a00c05088009f
:101db000d1508800c4508000d5508000e00f520000
:101dc000e08f5a0002003d00182aef001a2aef00a7
:101dd000c6508000d7508000a4508000b5508000cd
:101de000840f5300858f5b0002003400bc2ba800d9
:101df000c90807008480a9004f03be004f02be003f
:101e00004f01be004f00be003600f9000040060042
:020000040000fa
:101e1000e6874700889fbe008a9fbe008c9fbe0059
:101e20008e1f78000007eb005e5288007e5288000b
:101e300021e3a8006044b8000805be000dfe2f0095
:101e40008c3e200084322000148a66002003a90002
:101e50002023a800400620000100200008090700f8
:101e60002023a9000002eb00030037000402e80071
:101e70008c0f5200460032002003ab00fbff320003
:101e80000518800085bf9f00461980000682660005
:101e90000400a000441988002003a9002023a80002
:101ea0004006200001002000f50807002023a900bb
:101eb0000c027800020037000402e900360032000c
:101ec0002003ab00fcff320004188000f4b79f0031
:101ed00045198000058266000410a000441988009e
:101ee0002003a9002023a8004006200001002000b4
:101ef000e30807002023a9000002eb0003003700dd
:101f00000402e8008c0f5200250032002003ab00d1
:101f1000fbff320004188000001880005c090700f5
:101f200074072000840f50001f0036000fbb97007d
:101f30006132b9000a0542008b854a007fb39700e1
:101f40006132b9000804420089844a000e07e800a3
:101f5000840c2000840f5700baff3a00820c200046
:101f6000030020000a00be00d1f90700505288008b
:101f7000820c2000030020000800be00ccf90700fe
:101f80007052880021e3a9000000eb000700370031
:101f90000080eb00050037000080eb0003003700f5
:101fa0000080eb0001003700e0ff2f004f077800b2
:101fb0004f06be004f05be004f04be006f00b100cb
:041fc0000000060017
:020000040000fa
:101fc4003600f800809fbe00829fbe00849fbe0042
:101fd400869fbe00889fbe008a9fbe008c9fbe0065
:101fe4008e1f7800ea8747008700a9001c002000a4
:101ff4000e7824004a208000fa03b2001d0020005d
:102004008a6edd00052180000d8262004a003200e4
:102014004455dd000e054500ca459000ef85650076
:10202400e88f550002003400bd8ba8008b0020000f
:102034009a42780061c26200230032005a44900040
:102044000884fb004244de000884fb0009002000f1
:102054000400200005002800040474008584740032
:102064002a4290000482fb003a4390006f0363000d
:102074004833dd000603720007002000463add0005
:10208400ca32de00850272004632dd0004047400a8
:10209400858474001a4278008482fb00c22ade0020
:1020a4001a4290007f0262004622dd000482720020
:1020b40005002000c222dd00040020000404740096
:1020c40085847400080037009a4278000582fb007a
:1020d4004222de001a4490007f0464004644dd007e
:1020e4000804720009002000e60045000b01780096
:1020f400688057008cf907008d86ea000d2188005e
:102104005a4290006242620002003200bd4ba800b5
:1021140005003700e88157000b4178000800be0035
:10212400245b8000040001000c06e800e60f560062
:10213400b0ff3a0003003700e50f560001003a00f3
:10214400bb0ba800af00b1004f0778004f06be00dc
:102154004f05be004f04be004f03be004f02be0039
:102164004f01be004f00be003600f90000400600db
:020000040000fa
:102174008620a9000602a80035108000e1826200d2
:10218400f41f230003003a004a0037000402e90068
:102194003a0032000602ab00fcff3a00450037006b
:1021a4000402e900370032000802ab00fcff3a00e9
:1021b40035048000e2826200f41f23000300320031
:1021c400440037000402e900300032008620ab00ee
:1021d400fcff32003f0037008620a900b401200034
:1021e4001410880045108000e1826200f41f23006f
:1021f40003003a00040037000402e900250032001d
:102204000802ab00fcff3a0035048000e282620061
:10221400f41f230003003200330037000402e900f6
:102224001e0032008620ab00fcff32002e00370077
:102234000402e9001b00320047108000870263009b
:10224400fbff32008620a9000642a800351080005a
:10225400e4826200f41f230010c0b30003003a00bc
:10226400130037000402e900100032000642ab00fc
:10227400fcff3a0010c0b3000d0037000040eb0033
:102284000b0037000040eb00090037000040eb0072
:10229400070037000040eb00050037000040eb006a
:1022a400030037000040eb00010037000040eb0062
:1022b400000006008620a900040d200014108800e8
:1022c40045108000e1826200f41f2300b6ff3a004b
:1022d400b7ff3700040028004510800005026200a3
:1022e400bdff3200d7ff37008620a9000500280073
:1022f4004710800087826200f41f23000600280034
:08230400cdff3200cfff3700ce
:020000040000fa
:10230c00889fbe000004780081037800945d8000f3
:10231c00880f52000b003d0004bab90011000900ef
:10232c00482ad80080037800945d80000491b9009d
:10233c00110009004819d800000178000404780045
:10234c000e0037008402ea00850f54000b003d009c
:10235c008802ea0004bbb90011000900453bd80013
:10236c0080037800945d80000491b900110009008d
:10237c004519d800000178000404ea00945d80003f
:10238c00848f53000b00340004c2b9001100090003
:10239c00472ad80000047800945d80000491b900ad
:1023ac00110009004719d800000178008403780057
:1023bc000e0037008402ea00858f53000b003d00ad
:1023cc008702ea0004c4b90011000900454cd8008a
:1023dc0000047800945d80000491b900110009009c
:1023ec004519d800000178008403ea00945d800050
:1023fc00840f51000b00340004c2b9001100090015
:10240c00422ad80000047800945d800004bbb90017
:10241c0011000900423bd8008003780004017800c9
:10242c000e0037008402ea00850f51000b003d00be
:10243c000201ea0004c2b90011000900422ad800c6
:10244c0000047800945d800004bbb9001100090001
:10245c00423bd800800378000401ea00a45d8000b0
:10246c0004004400b00e880084804300c10e880034
:10247c0004014100d20e88004f04be00000006008b
:020000040000fa
:10248c000002eb00240588002505800005c0a00093
:10249c0005d0a10005e0a1002505880034058800c1
:1024ac00350580000500a1006500b30035058800e6
:1024bc0044058800450580000580a0000590a1001a
:1024cc0005a0a00045058800450580000540a0003a
:1024dc000550a1000560a000450588004505800059
:1024ec000500a0000510a1000520a00045058800ee
:1024fc0054058800f5cf2f005605800086826200b7
:10250c0005a0a00055058800550580000540a100d8
:10251c000506b30055058800640588006505800034
:10252c0005c0a00005d0a00005e0a000650588004e
:10253c007405880084058800c5ff2f00860580007f
:10254c00868262000520a00085058800f5ff2c001e
:10255c00860580008682620005e0a0008505880063
:10256c0094058800a4058800f58f2f00460b2000e9
:10257c00168b6200f5ff2c00a60580008682620097
:10258c0005e0a000a5058800b4058800b50580000d
:10259c000500a0000510a1000520a000b5058800cd
:1025ac00d405880004068800050680000530b300b9
:1025bc0005a0a100050688001406880015068000f9
:1025cc0005c0a00005d0a00005e0a00015068800fd
:1025dc0024068800340688004406880081e0a9009f
:0425ec0000000600e5
:020000040000fa
:1025f000889fbe008a9fbe008c9fbe000082eb00b9
:10260000755b8000ef8f52004d003e00faff2f00f7
:10261000fbff29000383650007002000c036dd00b2
:102620000c0020006113b80006067600878676004d
:102630000182650005002000c024dd0008002000a4
:102640006102b80004047400858474008a0f560087
:102650008b8f5e002e00320070cbbf008082fb00ab
:102660004240a90012003400965b8000a75b800006
:1026700024b720000005eb008c0f53008d8f5b000a
:1026800005003a00240037005403be008c0f5300ad
:102690008d8f5b00040032000a05e800850f5500ad
:1026a000f9ff350002003700e10f45001b003a003a
:1026b000e4ff2f00e34f500021003200c22add006a
:1026c00024b72000050242000c8abe000045e80045
:1026d00004b720000a4a78000a85fb00cf68de00b4
:1026e000f4ff21000d02620005002000c021dd0082
:1026f000020020006162b800040171008581710050
:102700004f4ade000a0078009f03070003003700ed
:102710003a002000010037000005eb00705b8000ec
:102720000002e800745b8800cf48de008a0278006f
:10273000f40020000801be006c0207000002eb005c
:10274000040078004f06be004f05be004f04be00d7
:04275000000006007f
:020000040000fa
:10275400889fbe000044eb000930230004bb200026
:10276400084a7800d421ef00b05d80006500400085
:10277400cf80de00c1060700b40bf800da01f900cf
:10278400da01f800d801f900d801f800d601f900ff
:10279400c1e1a8008be0a9009be0a8007400200020
:1027a400840e880014002000a40e880004bb2000be
:1027b40014427800e04f52002b003a00b05d8000d4
:1027c400a00fb000cf80de00ac06070004bb2000e1
:1027d40014427800e04f520023003a001401200014
:1027e400a40e880004bb200014427800e04f52007d
:1027f4001d003a00b05d8000a00fb000cf80de0065
:102804009e06070004bb200014427800e04f5200eb
:1028140015003a00d421ef0004bb200014427800d4
:10282400e04f520010003a00b05d800065004000a7
:10283400cf80de009106070004bb2000144278001c
:10284400e04f520008003a00a90e880004bb2000a3
:1028540014427800e04f520003003a00c26bef00cc
:1028640010c0b3000b00370024bc2000084a7800d5
:1028740014bb200014427800e04f520004003200e0
:10288400803e2000010020007c060700b3ff3700d3
:0c2894000040eb004f04be0000000600f6
:020000040000fa
:1028a0000454800075ba2000844a78004822de0073
:1028b0008442780087ba2000854b780064548000f9
:1028c00096ba2000044b78004822de0004437800ca
:1028d000a5ba2000864a78004454800055548000f0
:1028e000b7ba2000844b78004822de00844278008a
:1028f000c7ba2000854b78004454800055548000ae
:1029000040aade00cfa2de00d6ba2000044b780039
:102910004822de0004437800e5ba2000864a7800a9
:10292000a6cbbf000080fb004400dd000080a000bb
:10293000cf80de0073ba200082c0b3002ffa0700f8
:10294000e7b720009743780074ba2000074a780060
:1029500015a920009542780086ba2000054b780022
:10296000d453800097ba2000844b78004822de00c0
:1029700084437800a6ba2000074b7800a4bb20004f
:1029800014427800b5ba2000844a7800b6bb200013
:1029900016437800c7ba2000864b7800c4bb2000dd
:1029a00014427800d5ba2000844a7800d6bb2000b3
:1029b00016437800e7ba2000864b7800a6cbbf000c
:1029c0000080fb004400dd003010b300cf80de004b
:1029d00073ba200082c0b30008fa070000000600a6
:020000040000fa
:1029e000881f7800e00f5100e08f590023003d0060
:1029f000f5c3b3008543610025002000853bdd0061
:102a000050439000634363000743730056409800af
:102a1000c61bde004a1cdd004613de000603740000
:102a2000f8ff200006036400264098004833de00cb
:102a30003044900007cfb3008743640006c373009f
:102a4000364098004219de00f67f20000201630044
:102a500002037800f603b2008532dd004611de0085
:102a60009043900006ceb30006c36300024173009a
:102a70001240980063c8720017003700f57f2000ed
:102a80000281620002037800f603b20025002000f4
:102a90000533dd004611de009043900005ceb30003
:102aa00085c2630002c1720012409800d0429000bb
:102ab000e3c26200554098008042eb002540980038
:102ac000b043900005cfb30085c263003540980045
:102ad000c5cfb30005486300d04290000510a100a7
:102ae000554098006fc36000c043900005cfb3000d
:102af00085c2630086c272004540980066004000af
:102b00000181fb008400780008f707004f0478007b
:042b100000000600bb
:020000040000fa
:102b140080427800004aeb000000eb00efcf520047
:102b240046003a00843e2000045c880054bc200027
:102b3400144278000482fb00840242000281fb00fc
:102b4400828f52003d003c008402e90085824200ed
:102b540061c37a000683fb00858040001142900027
:102b64004822dd0004027300e5b720009542780096
:102b7400e6cf52001800320005003e00e0cf5200bc
:102b84002b003200e2cf52002a003a00080037003e
:102b9400eacf520027003900ebcf52000400360080
:102ba40006c5b30086cf520022003a001600370053
:102bb40045a22f00850f520001003d000502780058
:102bc400c55d2000850f5200010034000502780025
:102bd400f45388001700370005518000850f520018
:102be400020034000451800005003700200aee0082
:102bf400800f520002003d00200aee00000278001f
:102c0400e45388000b00370005f82800850f5200b4
:102c140001003d000502780005082700850f5200d9
:102c24000100340005027800d45388000100370005
:102c34007304070019ff07001000200000000600bd
:020000040000fa
:102c4400881f78008a9fbe000004a8008082fb00d1
:102c540005834200060343000744200007034300a2
:102c64008683e800e0cf50000800320063846100ee
:102c740068044400421dde000b002000c550dd0046
:102c8400010b4400820b7800030037004511dd007e
:102c9400020b7800800beb008741200006422000e5
:102ca400e34f50000f003600e4405000264220005d
:102cb400e3cf50000b003600e8405000a74120004d
:102cc40046422000e3cf5000060036006c4050001e
:102cd40066422000e34f5000020036008003eb0000
:102ce40007037800638062004200dd00f1002000e9
:102cf4000008dd008080ea0096806000008b700090
:102d0400e24f520009003e0067836200060343005d
:102d1400300020000600dd000080ea00170060009b
:102d24000482fb000623dd00860b700010002000e7
:102d34000500dd001424b7000004a9004f05be00ff
:082d44004f04780000000600b6
:020000040000fa
:102d4c00045d8000155d800061024200e0824a0053
:102d5c00045d8800155d8800e45c8000f55c8000f3
:102d6c0061034200e0834a00e65c8800f75c88005f
:102d7c0034508000e00f520003003200e10f42009b
:102d8c0006003a000300370014002000145088009d
:102d9c0010003700022aef000e003700345080007c
:102dac0005002000840f5300858f5b00090035005f
:102dbc009c2bef009e2bef0004a0200094029000af
:102dcc0005f0a7008502ea008502e900cf2ade00a3
:102ddc001502980024508000e00f520003003200ce
:102dec00e10f420006003a000300370014002000f7
:102dfc000450880012003700002aef001000370042
:102e0c002650800007002000045d8000155d8000c6
:102e1c00840f5300858f5b0009003c00a02bef0052
:102e2c00a22bef0004a020009402780005f0a7006c
:102e3c008502ea008502e900cf2ade00050a780047
:042e4c00000006007c
:020000040000fa
:102e50000a00fa00889fbe008a9fbe000004be00e0
:102e600082407800030078000042eb00e4f79f0006
:102e70000a702000080565000b002000485add009c
:102e80004855de000a057200c85dde00e14f5500be
:102e90000800320003003900e74f550011003a00e6
:102ea0000c003700ea8157007281570026f60700b0
:102eb0000d003700ef4264006a825700f28157002c
:102ec00001417800800078000540780011ff07007c
:102ed00005003700ea81570072815700ae020700f3
:102ee000010037000000eb00e00f50000f0032003f
:102ef000eff09700e0cf50000c003200670565004e
:102f00004855dd0054bc2000144278000482fb00c8
:102f10004422dd000a057200080fb2004440de00c2
:102f20000000750072815700950507004f05be002f
:0c2f30004f04be000080fa000000060004
:020000040000fa
:102f3c0010018000801f780020018000801f780025
:102f4c0030018000801f7800003782004a0ab500eb
:102f5c0080027800445280001301c0000400cd00b0
:102f6c00e4528800103782004e0ab5000003780046
:102f7c00875280001301c6000400cd000453880062
:102f8c004f007800300188004f0078002001880045
:102f9c004f0078001001880000000600100180002e
:102fac00801f780020018000801f78003001800095
:102fbc00801f7800003782004a0ab5008002780032
:102fcc00445280001301c0000400cd00e45288007c
:102fdc00103782004e0ab5008002780064528000df
:102fec001301c0000400cd00f45288004f0078009b
:102ffc00300188004f007800200188004f007800d5
:08300c0010018800000006001d
:020000040000fa
:10301400042080000480a0000490a10004a0a1006a
:1030240004208800060e20000502200007208000ee
:1030340007026300850f5200fcff3a00f48f2f0053
:1030440005402000950a6200050e2000062080003d
:1030540006826200fdff3a0030e4a80031e4a800d3
:1030640032e4a80033e4a80034e4a90035e4a9005c
:1030740036e4a90037e4a900c4ff2f000743200069
:10308400970b6200f4cf2f0005432000950a6200dd
:10309400c4ff2f0026432000160b6200f4cf2f003c
:1030a40027432000970b620004fe2f003520800088
:1030b400050262000420a00034208800342080002f
:1030c40004d0a10004e0a00004f0a1003420880092
:1030d4000ca4a8009860a8009700a8008204070028
:0830e4008e0407000000060045
:020000040000fa
:1030ec00889fbe008a9fbe000004a8000003400019
:1030fc00060343000744200007044300c283de009c
:10310c008783430006422000868343004383de000e
:10311c00060343008941200009034300e18f50005e
:10312c0008003a00e3846100e8844400429dde001c
:10313c00cfd5de00c550dd00018c44001204980090
:10314c00050037004511dd00020c7800f27f2000ed
:10315c000300200013049800e3006000c208dd00a7
:10316c00f20020000111dd000281ea00170161006c
:10317c000122dd00840b7100670260000402420032
:10318c0037002000843bdd008783ea0096836300d0
:10319c00042add00048b7300140020000020dd00e5
:1031ac001424b7000004a9004f05be004f04be0054
:0431bc000000060009
:020000040000fa
:1031c0003600f800809fbe00829fbe00849fbe0034
:1031d000869fbe00881f78008860a9000004a800b0
:1031e0000400220055208000050262000200320027
:1031f00014002000145b880004002100552080008a
:10320000050262000004eb00880f52000300320048
:10321000bb4ba800bd0ba8001800200004802000b4
:10322000552080000502620002003200bb6ba8003e
:10323000bd2ba8000410200055208000050262006c
:1032400003003200bd6ba800bb8ba800bbaba8007d
:10325000f4002000542088000004a900145b8000c2
:10326000e10f520001003a00ab030700e00f5400e9
:1032700001003200a80307004f0478004f03be008e
:103280004f02be004f01be004f00be003600f900e5
:0432900000400600f4
:020000040000fa
:103294000002eb000419880014198800241988001e
:1032a4002143a90047c0b30046322000074b7800f1
:1032b400151980000580a1000590a000151988004b
:1032c4002063a8002043a800051980000506b30068
:1032d4000570a10005198800051980000530b300a8
:1032e4000519880035fc2f0026322000168b620059
:1032f400941988002343a90044198800fd824200e0
:1033040047198000878262003500b30045198800a0
:103314002603a900041c8800041c80000440a100aa
:103324000450a000041c8800c4ff2f0005382000ae
:10333400950a620081c3a90004302000441c88005f
:1033440034002000541c8800d4002000141c880081
:0c335400046e2000241c8800000006000d
:020000040000fa
:10336000200f8000cf80de00c003dd0006002000bb
:103370007454800011000900443bd8003657800087
:103380003057880044548000555480000600500097
:10339000cf80de000003420081834a00465488004b
:1033a000575488002457800045a920004223dd009f
:1033b000068342004054800051548000008bbe00c0
:1033c0000402e800245788004254800053548000cf
:1033d0002757800046012000110009008603d8000d
:1033e0000102780024578800245780004222dd0023
:1033f000848242001502be00020078008c0ab400ec
:103400000003780004025300250020001100090089
:0c3410000502d80060548800000006008f
:020000040000fa
:10341c00881f7800004478000043eb000882fb0012
:10342c000500200086407800f2ff200003002000f9
:10343c0006407800aa0207000043eb00f4002000cd
:10344c000500200011c0b300f2ff20000300200093
:10345c0006407800a20207000884fb0004702000dc
:10346c00080272000043eb00cfa2de0021c0b300c3
:10347c00f2ff2000030020000640780098020700ad
:10348c000043eb00f47020000500200031c0b300b5
:10349c00f2ff200003002000064078009002070095
:1034ac000043eb00f41020000500200041c0b300e5
:1034bc00f2ff20000300200006407800880207007d
:0834cc004f0478000000060027
:020000040000fa
:1034d400881f780058168000551680005416800006
:1034e4004922de00614262000804d10064046400e1
:1034f400c72ade00e28262000544740004447400ba
:1035040002003200e74f540006003a000044eb008a
:1035140004bc2000084a7800ba8ba800fd0207000a
:1035240015003700c0cbbf00884f50001100320097
:1035340072c0b3000440bc000882fb0004004100d8
:1035440004b3200064427800e24f520006003a00bf
:103554000044eb0004bc2000084a7800bacba80061
:10356400ec0207000400370004bc2000084a78007d
:103574000100370000447800084078004f047800c8
:04358400000006003d
:020000040000fa
:10358800889fbe000004a800000040000000400022
:103598000543200005004000e10f520012003a00e8
:1035a8006112b800638361006134b8004299de009b
:1035b800cf91de00f67f20000201630003002000a7
:1035c800e18f500004003a00680444004511dd0012
:1035d80002084400020037004511dd0008084100d8
:1035e800140098000c003700f47f200002016200ec
:1035f80003002000e18f500003003a004511dd0070
:1036080068084100020037004511dd000208780013
:103618000002eb00140098000004a9004f04be004b
:043628000000060098
:020000040000fa
:10362c0005002700143a8000848262000400230005
:10363c00848f520020003200e4012000343a8800cc
:10364c00f4f32f0045742000950a620004fe2f004d
:10365c0046742000160b6200a509200036002000dd
:10366c008407200037742000844b7800854b780049
:10367c00864b78007505200016002000640420009d
:10368c0027742000844b7800854b7800864b78009b
:10369c000600270005002300173a8000070263008c
:1036ac00850f5200fcff3a0005022000163a8000fc
:0c36bc0006826200fdff320000000600e4
:020000040000fa
:1036c8003600f800809fbe00829fbe00849fbe0027
:1036d800869fbe00f00107009afd07006c010700f5
:1036e80084a720001442780064426200130032006c
:1036f800c45c80000402e800c45c8800f30f520038
:103708000e003400982bef0084f8070080508800e2
:1037180084508000e00f520002003d00122aec00a5
:103728000600370085508000c4d82000848f5200de
:1037380002003400bc2ba800750207008460a900b1
:103748004f03be004f02be004f01be004f00be0037
:083758003600f90000400600f4
:020000040000fa
:103760003600f800809fbe00829fbe00849fbe008e
:10377000869fbe002e2aef00302aef000002eb00e9
:10378000045488001454880084a720001442780050
:103790006442620007003a00d45c80000402e80042
:1037a000d45c8800f30f5200020034009a2bef0023
:1037b0003500070084a720001442780061426200af
:1037c0000500320014a92000144278007042620003
:1037d00001003a00e2fe07008500a9004f03be0089
:1037e0004f02be004f01be004f00be003600f90080
:0437f000004006008f
:020000040000fa
:1037f400f48f2f00051e2000950a6200e1e1a90064
:10380400e1a1a90004a92000144278006102620029
:103814004722dd00f5f72f00060f80008682620044
:1038240085027200050f8800e0c1a900e041a800ec
:10383400e301a800e2e1a800140f80000440a00006
:103844000450a1000460a000140f8800140f80002d
:103854000490a00004a0a000140f8800e6a1ef00cb
:10386400040f80000430b30004a0a000040f8800fb
:103874009b40a9008b40a900e421ef00918aa80095
:04388400000006003a
:020000040000fa
:10388800065480000454800006a3b900e05080006c
:10389800f1508000c4508000d550800000035300d0
:1038a80081835b004638dd004a33de000603700082
:1038b800cabbde000600420087804a00c05088006c
:1038c800d1508800c4508000d5508000e00f5200cd
:1038d800e08f5a0002003d00182aef001a2aef0074
:1038e800c6508000d7508000a4508000b55080009a
:1038f800840f5300858f5b0002003400bc2ba800a6
:083908000302070000000600a5
:020000040000fa
:10391000889fbe008a9fbe000004eb002816880026
:103920008084eb0009168800681688004916880014
:1039300042030700f4fb2f00153a800005026200e5
:103940006b0420007a052000257420008b4a780043
:103950008a4a7800844a780069198800a80207001a
:10396000fb020700230307003a010700143a800016
:103970000460a000257420008b4a78008a4a7800f1
:10398000844a780008038800180388004f05be00a9
:083990004f04be000000060018
:020000040000fa
:10399800104278008049eb00e14f42000f003a00e6
:1039a8000000eb00e1cf500018003a0054c0b3000b
:1039b8008449780000c9eb0085c0b3001541980020
:1039c8002441980044c0b30034419800c4cdb300ea
:1039d80044419800100020000c003700e04f5200ce
:1039e80003003a000000fe00100020000700370026
:1039f80010002000ec4f520004003200d4c0b20086
:103a08000480fb000000e9004f00de000000060013
:020000040000fa
:103a1800889fbe008a9fbe006c0007008004eb00f0
:103a28000afa20000b002000087122000a00be00dc
:103a3800110207008904e800888f5400fbff3a0050
:103a480028508000f0f80700e10f400003003a001a
:103a5800bc0ba800042aef00ffff3700e20f40006c
:103a680003003a00bc0ba800042aef00f5ff37005a
:103a7800285088004f05be004f04be000000060015
:020000040000fa
:103a8800a6bb2000164378000683fb00b7bb2000c6
:103a980097437800c83bdd0007027300c7bb2000ce
:103aa800974378008783fb00d6bb20001643780035
:103ab8004833dd0006837300040078000000a1008d
:103ac80007002000c032dd00040020006103b800b8
:103ad800060272008782720010002000e00f520078
:103ae800e08f5a0001003a00c05d80000000060027
:020000040000fa
:103af8003600f800809fbe00829fbe00849fbe00f3
:103b0800869fbe00d421ef00c1e1a90016c0b30012
:103b180005bb2000864a780024bc200014427800a7
:103b2800e04f52000400320015bb2000864a78009e
:103b3800c26bef0003003700b16bef00ba6ba8004f
:103b4800730107008be0a9004f03be004f02be00bf
:103b58004f01be004f00be003600f90000400600cd
:020000040000fa
:103b6800889fbe000004be0002007800a85d88009f
:103b7800b95d8800000207005a0207000002eb0046
:103b8800a40e8800c1e1a90015bb2000844a780072
:103b980016c0b30027bc2000864b7800280e88008a
:103ba80075072000450e8800690e8800740e88008d
:103bb800840e880025002000050e8800340e880039
:0c3bc800c7e1a8004f04be00000006008a
:020000040000fa
:103bd4000002eb00041988001419880024198800d5
:103be40047c0b30046322000074b7800f5cf2f00c2
:103bf40026322000168b62002063a9002043a8000f
:103c0400f5f12f0007322000978b62000519800020
:103c14000530b3000519880035fc2f00263220003a
:103c2400168b6200941988002343a9004419880064
:043c34000000060086
:020000040000fa
:103c3800015188006102b90004abb90006034300d2
:103c48000422b80085024300e4508800f55088003b
:103c5800610ab900e0508000f150800004abb9005f
:103c6800060343000422b800850243000002520004
:103c780081825a006a2bb9006a22b8008502430083
:103c8800a4508800b5508800125188000000060032
:020000040000fa
:103c980044ba200014427800e04f52000900320074
:103ca80004508000e00f520003003200c082a900d7
:103cb800c282a90001003700c082a800a46bef00ef
:103cc8000a00370014508000e00f52000300320051
:103cd800c082a900c282a80001003700c082a800e3
:103ce80016c0b30045ba2000864a780000000600d6
:020000040000fa
:103cf800889fbe000004a8004200dd00c03fb2005b
:103d080004432000040040000082e800e0cf500097
:103d1800080032006383610068034300421cde0030
:103d280009002000c542dd0005084300020a7800aa
:103d3800030037004511dd0068084100000aeb0068
:0c3d48000004a9004f04be0000000600ab
:020000040000fa
:103d54000164a80084208000040cb300842088003f
:103d640004fc2f0005412000950a62009420800085
:103d74008403b3009420880012e4a80094208000f7
:103d84000480a0000490a10004a0a0009420880056
:103d9400c4ff2f0095208000050262000420a000cb
:0c3da4009420880012c4a8000000060053
:020000040000fa
:103db0000002eb00c45d880004aaef00a5bb200050
:103dc0009542780004437800a5bb2000864a78001d
:103dd000b5bb200095427800b5bb2000864a78002c
:103de000c5bb200095427800c5bb2000864a7800fc
:103df000d5bb200095427800d5bb2000864a7800cc
:043e000000000600b8
:020000040000fa
:103e04000002eb00d4538800e4538800f453880084
:103e1400e45188006033b800365188004751880067
:103e24005651880067518800765188008751880070
:103e340094518800a6518800b7518800c451880065
:103e440004437800a5a32000864a780000000600f9
:020000040000fa
:103e540004fe2f00e6348000860262005500b300a1
:103e6400e5348800f60f2e00e53480000503630076
:103e74000560200086827200e5348800f6348000f4
:103e8400060262007400b300f434880064198000f0
:0c3e9400040eb300641988000000060052
:020000040000fa
:103ea0000004a800040021005520800005026200e3
:103eb00001003a00bb4ba90004802000552080007f
:103ec0000502620001003a00bb6ba900041020004b
:103ed000552080000502620002003a00bb8ba90059
:0c3ee000bbaba9000004a9000000060014
:020000040000fa
:103eec00889fbe008a9fbe008c1f7800004578001a
:103efc00014678000404be00864578008b407800ab
:103f0c000a40780079ff07000a4278008b4078005d
:103f1c000801be000c40780047fb07004f067800f4
:0c3f2c004f05be004f04be000000060060
:020000040000fa
:103f3800105c880024002000110009008400d800cb
:103f4800205c880064b82000024a78000201fb0067
:103f580004322000050020000201e90003003300bc
:103f68000402420085824a00fbff3700f4518800b2
:083f780005528800000006005c
:020000040000fa
:103f8000c902a90004fe2f00856c2000950a62007a
:103f9000c922a900f40f2e00856c2000950a62004a
:103fa000cf02a800cf22a800b41820002410880057
:103fb00007e2a8008038210001002000b0000700bf
:083fc0006cf807000000060088
:020000040000fa
:103fc800f45d80000402e800000042000000d10017
:103fd800f05d880034062000840f500003003e0086
:103fe800ba2ba8004a0007000500370084252000e6
:103ff800840f500002003600ba4ba80044000700a6
:0440080000000600ae
:020000040000fa
:10400c00881f7800004478000842e900ed4f520008
:10401c0001003600a8c0b300084078008a010700f0
:10402c000840780086010700807221000500070017
:10403c0008407800f6fc0700f3fb07004f047800fb
:04404c00000006006a
:020000040000fa
:10405000205b8800f4cf2f0005208000050262005d
:1040600004a0a00004208800060e200005082000ff
:104070000720800007026300850f5200fcff3a0012
:1040800034ff0700f4002000542088000004a90039
:044090000000060026
:020000040000fa
:104094000002eb0040a920006033b800c222dd001a
:1040a40085024000868abe000402e800f40f520034
:1040b400faff3a000002eb00240f8800245788001e
:1040c400882aef008a2aef00645488003457880055
:0440d40000000600e2
:020000040000fa
:1040d800c45d8000e00f52000c0032001400200084
:1040e800c45d8800f80007002e01070004a0200026
:1040f800e5012000250298008082eb003502980037
:1041080006cab300e5b72000864a7800000006001a
:020000040000fa
:10411800c45d8000e00f52000c003a00140020003b
:10412800c45d8800e80007001e01070004a0200005
:10413800e5012000250298008082eb0035029800f6
:1041480006cab300e5b72000864a780000000600da
:020000040000fa
:104158003600f800809fbe00829fbe00849fbe008c
:10416800869fbe008660a900c262ab0002003200d2
:10417800ba0ba800d40007004f03be004f02be00d0
:104188004f01be004f00be003600f9000040060097
:020000040000fa
:10419800405c8800515c8800c4b82000034a78005d
:1041a8008301fb0004322000050020008301e900a0
:1041b800030033000402420085824a00fbff3700f7
:0c41c800245288003552880000000600d8
:020000040000fa
:1041d400c902a90004fe2f00856c2000950a620024
:1041e400c862a900f50f2e00163680008682620090
:1041f40005b0a00015368800453580000502620030
:0c4204009400b300443588000000060060
:020000040000fa
:10421000945d8000800f5200050035008402ea00a2
:1042200000027800850f520001003d000502780071
:10423000a55d800005034200b60e8800048252008e
:08424000d40e88000000060006
:020000040000fa
:10424800e00f51000b0032004802dd004800de009c
:10425800314378008682fb000500680000004000ba
:104268000580200065007800040068000201e9006c
:08427800f5ff3a00000006000a
:020000040000fa
:10428000f03fb1000180b10006003500ee030900e7
:1042900000000000403fb1000180b100fbff3d0085
:1042a0001000b000203fb00002003500008009007f
:0842b000000000000000060000
:020000040000fa
:1042b8004580a90044a0a80044e0a8004480a800c4
:1042c8004440a9004420a8004400a900f4ff2700a6
:1042d80044528800050028006552880084528800ee
:0442e80000000600cc
:020000040000fa
:1042ec00e023ef0004022200641c88002444200018
:1042fc00a41c880074002000b41c880064042000f6
:10430c00741c880004702000841c88008de3a800b5
:04431c000000060097
:020000040000fa
:10432000e023ef0004022000c41c880004442000a5
:10433000041d880074002000141d88007b024200c8
:10434000d41c880004782000e41c880099e3a800ad
:044350000000060063
:020000040000fa
:1043540002322000a1002000803e200001fe070060
:10436400acfd0700cafb0700d2ff0700526aef004a
:0c437400a3fe0700a200070000000600e6
:020000040000fa
:1043800080027800a65d80006933b900a400200097
:10439000110009000403d80000027800850f5200c4
:0c43a00001003500955d8800000006005b
:020000040000fa
:1043ac00e00f500006003d000000ea007054880049
:1043bc0016c0b30005a92000864a78000200370019
:0c43cc0070548800906aef0000000600aa
:020000040000fa
:1043d8000002eb00a40e8800c1e1a90004437800a4
:1043e80015bb2000864a780016c0b30025bc200003
:0843f800864a7800000006006f
:020000040000fa
:1044000004fe2f0026368000860262000540a000d0
:1044100025368800a5358000050262000410a00042
:08442000a4358800000006002d
:020000040000fa
:10442800881f78000044780074fe0700242aec00f6
:1044380088427800f4b72000054a78004f047800d5
:04444800000006006a
:020000040000fa
:10444c0016c0b30045a82000864a78007600070005
:10445c0023000700030007006a000700baf80700f2
:04446c000000060046
:020000040000fa
:104470008480a9009480a8002023a8002003a9001c
:1044800085a0a90081e3a80021e3a80000000600a0
:020000040000fa
:1044900014002800040040004300de006500b9005d
:1044a00094032000110009000480d80000000600d9
:020000040000fa
:1044b000200f8000cf80de00c003dd00060020005a
:1044c0007454800011000900443bd800000006002d
:020000040000fa
:1044d000c1ff070005000700420007003300070086
:0c44e00048fe0700846aef0000000600a0
:020000040000fa
:1044ec00b40bf800da01f900da01f800d801f90090
:0c44fc00d801f800d601f900000006000d
:020000040000fa
:104508000000eb0018f0070081bb200090fa2f0094
:0845180008f007000000060096
:020000040000fa
:104520000000eb0014f00700017d2000d0f82f0000
:0845300006f007000000060080
:020000040000fa
:104538000000eb0010f00700d1072000d0fa2f0090
:0845480004f00700000006006a
:020000040000fa
:1045500004fe2f00c5348000050262000400a000a4
:08456000c434880000000600cd
:020000040000fa
:1045680001427800820178000100200004417800af
:0845780020f30700000006001b
:020000040000fa
:104580000142780082017800010020000441780097
:084590001af307000000060009
:020000040000fa
:10459800e4152000f45d8800ba4ba900ba2ba900e5
:0445a8000000060009
:020000040000fa
:1045ac000000eb00f1ef07008500a9009500a800c2
:0445bc0000000600f5
:020000040000fa
:1045c000010020008001eb00034178000bf307009d
:0445d00000000600e1
:020000040000fa
:1045d4000000eb00ebef07008780a9000000060055
:020000040000fa
:1045e40081e3a90021e3a9009480a900000006004a
:020000040000fa
:1045f4002c03a9002c23a9002c43a90000000600c9
:020000040000fa
:0c46040063a0a8008660a900000006006a
:020000040000fa
:0c4610008be0a9009be0a8000000060061
:020000040000fa
:08461c00e3ff070000000600a7
:020000040000fa
:0846240003000700000006007e
:020000040000fa
:08462c002037820000000600a7
:020000040000fa
:084634009500a900000006003a
:020000040000fa
:08463c00c082a9000000060085
:020000040000fa
:084644004efe07000000060015
:020000040000fa
:08464c00c5ebb70000000600f9
:020000040000fa
:08465400a6ebb7000000060010
:020000040000fa
:08465c00a6ebb7000000060008
:020000040000fa
:0846640085c0a900004006001a
:020000040000fa
:08466c008020a900ffff3700c8
:020000040000fa
:084674008060a900ffff370080
:020000040000fa
:08467c008040a900ffff370098
:020000040000fa
:084684008080a900ffff370050
:020000040000fa
:08468c008020a900ffff3700a8
:020000040000fa
:084694008060a900ffff370060
:020000040000fa
:08469c008040a900ffff370078
:020000040000fa
:0846a4008080a900ffff370030
:020000040000fa
:0846ac000040da000000fe00ee
:020000040000fa
:0446b40000400600bc
:020000040000fa
:0446b80000000600f8
:020000040000fa
:0446bc0000000600f4
:020000040000fa
:0200000401f009
:04000000ffff0000fe
:020000040000fa
:0200000401f009
:04000400ffff0000fa
:020000040000fa
:0200000401f009
:04000800ffff0000f6
:020000040000fa
:0200000401f009
:04000c0078ff000079
:020000040000fa
:0200000401f009
:0400100078ff000075
:020000040000fa
:0200000401f009
:040014007fff00006a
:020000040000fa
:0200000401f009
:04001800ffff0000e6
:020000040000fa
:0200000401f009
:04001c00ddff000004
:00000001FF
