:020000040802F0
:10000000288700108D050208735102084D3F020831
:100010005B5102082F3F02087F51020800000000D8
:10002000000000000000000000000000450402087D
:10003000473F020800000000FD04020861050208B5
:10004000A7050208A7050208A7050208A7050208D8
:10005000A7050208A7050208A7050208A7050208C8
:10006000A7050208A7050208A7050208A7050208B8
:10007000A7050208A7050208A7050208A7050208A8
:10008000A7050208A705020835180508851A0508FE
:10009000791A0508A70502087F1A0508A7050208AE
:1000A000192C0508A7050208652C0508A7050208F4
:1000B000A7050208A7050208A7050208A705020868
:1000C000A7050208A7050208A70502087128050868
:1000D00077280508A7050208A7050208A705020852
:1000E0000D23050879510208A7050208A705020893
:1000F000A7050208DD2C0508A7050208A7050208C8
:10010000A7050208A7050208A70502087D2805081B
:10011000A7050208A70502088D2C0508B52C0508BF
:10012000A7050208A7050208A7050208A7050208F7
:10013000A7050208A5210508A7050208971A0508C2
:100140008B1A0508A7050208911A0508A7050208D9
:10015000A7050208A7050208A7050208A7050208C7
:10016000A7050208A7050208A7050208A7050208B7
:10017000A7050208A7050208A7050208A7050208A7
:10018000A7050208A705020800F002F800F016F91A
:1001900014A696E8000CB244B344DA4501D100F04D
:1001A0000DF9BAE80F000FA696E83000A5EB04059C
:1001B00004EB0607AAEB0704A7F101074FEA1515A0
:1001C0004FEA3414A4F10104AC4201D300F0F6F874
:1001D00013F0010F18BFFB1A43F0010300F001F800
:1001E000DBE718474CC304007CC30400704710B51C
:1001F000002003F0D1F803F063F810BD14F05CBBED
:1002000002020370EA277B390000020800000600A2
:1002100000000020C0FF01000000000000000000FE
:100220000761454D533030616C6C000000000000E8
:1002300001000100010000004558540000000000CA
:1002400041756720203320323032362032303A3444
:10025000303A3431000000000000000000000000CF
:10026000000000000000000000000000000000008E
:10027000000000000000000000000000000000007E
:100280000A444FF0000C10F8013B13F0070408BFBC
:1002900010F8014B1D1108BF10F8015B641E05D05A
:1002A00010F8016B641E01F8016BF9D113F0080F0F
:1002B0001EBF10F8014BAD1C0C1B09D16D1E58BFA1
:1002C00001F801CBFAD505E014F8016B01F8016BD8
:1002D0006D1EF9D59142D6D370470000002300244B
:1002E00000250026103A28BF78C1FBD8520728BF46
:1002F00030C148BF0B6070476E2902F052847029EC
:1003000001F08583662901F000A4652901F0FDA3B1
:10031000672901F0FAA3612901F0F9A303681B0A18
:1003200028BF41F08001692901F0B882642901F0F9
:10033000B582752901F0B2826F2902F0078578290C
:1003400001F05183E92901F0E582E42901F0E2821C
:10035000F52901F0DF82EF2902F00485F82901F088
:1003600050830368DB0928BF41F08001632902F054
:100370004083732902F04583E32903F0EB81F329DD
:1003800003F0F081002070471FB541F068FB9DE845
:10039000030001F056FF02F0ADFB04000020002135
:1003A00040F0D0FC401C60600020002140F0B4FC14
:1003B000E06002F00DFF01F011FF1FBD03F01CF81B
:1003C0001146FFF7E1FF2BF08FF803F0F3FA03B4C7
:1003D000FFF70DFF03BC02F07FFB000080F30988EC
:1003E0007047EFF309807047684680F30988044836
:1003F0000078C00714BF0220032080F314887047E0
:10040000D4030010DFF818C0EFF305831B0618BFF4
:100410006047EFF31483DB0708BF604700DF7047D6
:10042000F5D50508DFF818C0EFF305831B0618BFE4
:100430006047EFF31483DB0708BF604700DF7047B6
:100440006DD60508EFF30980816911F8021CE1BB44
:1004500090E80F1010B5E047BDE81040EFF3098CAD
:100460008CE80700214B93E80600914208BF7047D3
:1004700041B91EF0100F16D11D49086820F0010087
:10048000086010E01EF0100F06BF2CED108A01204E
:10049000002081F838002CE9F00FC1F83CC00CB402
:1004A0003EF0CCFD0CBC1A60D2F83CC0BCE8F00FAA
:1004B00092F8380000280EBF6FF0020E6FF0120E97
:1004C000BCEC108A8CF30988704710B5094A126891
:1004D000914209D8084C54F8214090E80F10A047E9
:1004E000EFF3098C8CE80F0010BD000048030010EA
:1004F00034EF00E0741705087417050810B53EF0D6
:1005000097FCBDE81040154B93E80600914208BFE8
:100510007047EFF3098C1EF0100F06BF2CED108A08
:100520000120002081F838002CE9F00FC1F83CC010
:100530000CB43EF083FD0CBC1A60D2F83CC0BCE8A1
:10054000F00F92F8380000280EBF6FF0020E6FF027
:10055000120EBCEC108A8CF3098870474803001017
:1005600010B53EF08FFDCCE710B53BF0FFFD3EF03F
:1005700089FDC6E70048704700300000004870471A
:1005800000FC0100401EFDD1704700000948804773
:1005900009480047FEE7FEE7FEE7FEE7FEE7FEE765
:1005A000FEE7FEE7FEE7FEE704480549054A064B7D
:1005B00070470000712B0508890102080000002027
:1005C0002887001000FC01202857001010B582B0C9
:1005D00044F2D462C1F2000212780190A2B1002963
:1005E00018BF01210C4600F047FB01A8214633F05B
:1005F000A5FA044600F050FBE0B2013818BF4FF0F6
:10060000FF3040B202B010BDFF2040B202B010BDBA
:10061000B0B582B0144644F2D462C1F2000212783E
:1006200001903AB3002918BF01210D4600F024FBC8
:1006300001A8294633F082FA012C04460FD1019813
:1006400042F21C61C1F20001C1F82A0051F8045BBA
:100650004022281D01F02EFC284600F03FFE00F04D
:100660001BFBE0B2013818BF4FF0FF3040B202B0C0
:10067000B0BD00BFFF2040B202B0B0BD70B582B0C7
:1006800044F2D462C1F20002127801904FF0FF00F0
:1006900002B342F26665C1F200052A88D2B10E4665
:1006A00000F0EAFA288890B1019A44F2CC33002194
:1006B000C1F20003CDB2C5EBC50503EB4505D5F886
:1006C0000A4094420AD00131CDB2A842F2D800F0DB
:1006D000E3FAFF2040B202B070BD00BF00F0DCFAC8
:1006E00026B128893446B08068683060002040B266
:1006F00002B070BD10B582B044F2D461C1F2000105
:100700000978019000294FF0FF011FD042F2666482
:10071000C1F200042088C8B100F0AEFA208890B180
:10072000019A44F2CC3C0021C1F2000CCCB2C4EBE3
:10073000C4040CEB4404D4F80A3093420AD00131CB
:10074000CCB2A042F2D800F0A7FAFF2148B202B022
:1007500010BD00BF043400F09FFA44F61631C0F615
:1007600006012046062201F05AFB78B144F610310A
:10077000C0F606012046062201F051FB00210028A8
:1007800008BF4FF0FF3148B202B010BDFF2148B2A0
:1007900002B010BD002070470020704780B542F2C3
:1007A0001C60C1F200004FF0FF310181416044F252
:1007B000F851C1F200010A69D1F818E0898A40F2C3
:1007C000086CC1810823C1830021C0F2001CC0F263
:1007D0000643C0E908E1C0E90A11C0E90C11C0E90B
:1007E0000E11016445F22911C0E904C34FF480736E
:1007F000C1F20001C0F80A200383C0F81A2001608A
:100800002A2200200A6080BD90F82010202982BF93
:10081000FF2040B2704780B500F00CFD0020BDE81D
:10082000804040B27047000070B5C8B10C46054624
:10083000FFF7B0FF0646284600F0B6FC06442846FF
:1008400000F07EFA0644284600F0F8FA06442846EE
:1008500000F08AFC3044002C18BF206070BD00BF3F
:1008600044F2F850C1F20000026F3AB14BF6E77162
:10087000C0F60601E1209047002070BDFEE700BFF2
:1008800044F2F852C1F20002126F0AB1104700BFE1
:10089000FEE700BF70B568B10378026F44F2F85606
:1008A000C1F2000632678BB112B14DA1E42044E0E1
:1008B000FEE700BF44F2F850C1F20000026F1AB127
:1008C0005EA1E12039E000BFFEE700BF44F2D4633F
:1008D000C1F200031B78012B06D11AB14DA1E02013
:1008E0002BE000BFFEE700BF0D460446FFF78CFF7C
:1008F000E0B944F2F850C1F20000D82101F002FC46
:1009000044F2D060C1F2000000210160204600F0F6
:100910007FFC58B9204600F019FA38B9204600F09B
:1009200093FA18B9204600F025FC68B1326F4AB13D
:100930004CF20E01C0F60601E3209047FF2040B2C2
:1009400070BD00BFFEE700BF20462946FFF724FF29
:100950000028F3D120462646FFF71CFF20F00300B5
:1009600005442046294600F021FC0028E6D1204617
:10097000264600F019FC20F00300054420462946D5
:1009800000F0E0F90028D9D12046264600F0D8F939
:1009900020F0030005442046294600F051FA0028C3
:1009A000CCD12046264600F049FA20F00300291851
:1009B000204600F0DBFB0028C0D1204600F0D4FB2D
:1009C00044F2F850C1F200002146D82201F0F9FAB1
:1009D00000F046F8002818BF4FF0FF3040B270BD5D
:1009E0006970616C5F626173655F696E697469618A
:1009F0006C69736528293A20756E737570706F7213
:100A0000746564207463702F697020737461636B04
:100A1000000000006970616C5F626173655F696E00
:100A2000697469616C69736528293A20616C726523
:100A30006164792073746172746564006970616CBB
:100A40005F626173655F696E697469616C69736522
:100A500028293A206D697373696E672063666700A1
:100A600010B544F2F854C1F200042046FFF796FE98
:100A700010B1FF2040B210BD606FD8B1A16F002946
:100A800046D0E16F002943D0D4F8801000293FD030
:100A9000804744F2D061C1F200010860A0B9226F22
:100AA00032B14CF27B01C0F60601E02090470BE02A
:100AB000FEE700BF44F2D0610020C1F20001C4E9AA
:100AC0001E00C4F88000086044F2F850C1F2000033
:100AD00000F06EFB0028CCD144F2F850C1F20000C7
:100AE00000F032F90028C4D144F2F850C1F20000FD
:100AF00000F0A8F90028BCD144F2F850C1F200007F
:100B000000F036FB002818BF4FF0FF3040B210BD98
:100B1000226F4AB14CF24F01C0F60601E320904724
:100B2000FF2040B210BD00BFFEE700BF70B5C8B1E6
:100B30000C460546FFF72EFE0646284600F034FB1D
:100B40000644284600F0FCF80644284600F076F9F2
:100B50000644284600F008FB3044002C18BF2060F3
:100B600070BD00BF44F2F850C1F20000026F3AB10C
:100B70004BF6E771C0F60601E1209047002070BDFA
:100B8000FEE700BFFFF786BE0020704700207047D9
:100B900010B5416F41B3816FA1B1C16F91B1D0F870
:100BA000800078B144F2F854C1F20004606F30B1B3
:100BB000804744F2D061C1F20001086000B3002117
:100BC00048B210BD44F2F850C1F20000026F4AB1C1
:100BD0004CF24F01C0F60601E3209047FF2148B2D6
:100BE00010BD00BFFEE700BF0021C0E91E11C0F824
:100BF000801044F2D060C1F20000016048B210BD24
:100C0000226F4AB14CF27B01C0F60601E02090470A
:100C1000002148B210BD00BFFEE700BF10B544F28E
:100C2000F854C1F20004606FA0B1804744F2D06173
:100C3000C1F200010028086018BF10BD226F3AB150
:100C40004CF27B01C0F60601E020BDE810401047E1
:100C5000FEE700BF10BD00BF80B544F2F850C1F2FE
:100C60000000D82101F04EFA44F2D061C1F2000137
:100C7000002200200A6080BD44F2D060C1F2000072
:100C80000068002808BF704744F2F851C1F2000123
:100C90008A6FD1F88010104744F2D060C1F2000092
:100CA0000068002808BF704744F2F851C1F2000103
:100CB000C96F08470068704710B582B044F2D4612C
:100CC000C1F200010978FF240190A9B144F2F85162
:100CD000C1F2000191F82C1071B1C0B2EF280BD114
:100CE000FFF7CAFF01A839F051FD0024002808BF12
:100CF0004FF0FF34FFF7D0FF60B202B010BD00BF6D
:100D000010B582B044F2D461C1F200010978FF2429
:100D1000019091B144F2F850C1F2000090F82C001B
:100D200058B1FFF7A9FF01A839F058FD00240028A9
:100D300008BF4FF0FF34FFF7AFFF60B202B010BD45
:100D400000207047002070470020704790F82D1059
:100D5000062982BFFF2040B2704780B500F0FCFA40
:100D60000020BDE8804040B27047000080B544F2EA
:100D7000F850C1F20000406870B144F2D460C1F292
:100D80000000017801290FD10BA1E020FFF778FDC9
:100D9000FF2040B280BD00BF11A1E120FFF770FD30
:100DA000FF2040B280BD00BF0121017039F0CAFFB1
:100DB000002040B280BD00BF6970616C5F737973C1
:100DC0005F737461727428293A2063616E6E6F7468
:100DD00020737461727420616761696E00000000A5
:100DE0006970616C5F7379735F73746172742829C1
:100DF0003A206D697373696E6720636F6E66696709
:100E000075726174696F6E0080B5FFF735FF3AF057
:100E1000B5F9BDE88040FFF73FBF00BF80B5FFF7E1
:100E20002BFF3FF055FEBDE88040FFF735BF00BF08
:100E300044F2F850C1F2000040687047002070474B
:100E4000002070470020704710B50189B1F5C05FE0
:100E500002D9FF2460B210BD44F2D461C1F2000196
:100E600000240C7000F0E2FA60B210BD10B544F23C
:100E7000D461C1F20001097881B3102101EA400177
:100E8000082241EA401102EA50021144042202EA17
:100E9000D0000C18FFF7F0FE40F6E162E0B2C0F6B9
:100EA000020201213FF038FE4FF0000488B145F204
:100EB000701200EB4001C1F2000202EBC10101F827
:100EC000180DC1E903444C61C1F80640C1F8024065
:100ED0000C46FFF7E1FE204610BD00BF002010BD0C
:100EE00070B584B01446C21F12F1060F23D345F229
:100EF000701200EB4000C1F2000202EBC00050F89B
:100F0000082CC2B1A0F1180508461E46FFF7D2FE14
:100F1000EA683146034622B193420CD12889A042A7
:100F200009D1089AD5E904600391ADF8082002AA16
:100F300029460094B047002004B070BDF0B581B0E0
:100F400060B30446007848B3FFF796FE264636F8AD
:100F5000020F20B120783FF0C1FD00206080207892
:100F60003FF03CFE2178054601EB410045F270114F
:100F7000C1F2000101EBC000002700F8187C2770C7
:100F8000C4E90377676177603760FFF785FE002D5E
:100F900008BF4FF0FF3778B201B0F0BDFF2778B23D
:100FA00001B0F0BDF0B581B0D0B314464FF0FF06EC
:100FB00092B30546007878B30F46FFF75DFE688868
:100FC00020B128783FF08AFD0020688045F270103B
:100FD000C1F200004188FF26A1421BD0418BA142F3
:100FE00018D0418EA14215D0B0F84A10A14211D0BC
:100FF000B0F86210A1420DD0B0F87A00A04209D03A
:10100000287821463FF0ACFD00060FBFFF266C801C
:101010006F600026FFF740FE70B201B0F0BD00BF68
:10102000FF2670B201B0F0BD70B5B8B105460078CA
:10103000A0B114460E46FFF71FFE688830B9284657
:1010400000212246FFF7AEFF01300BD02C81002497
:10105000EE60FFF721FE60B270BD00BFFF2460B2FA
:1010600070BD00BFFF24FFF717FE60B270BD00BF68
:10107000B0B558B10446007840B1FFF7FDFD00253A
:101080002581E560FFF708FE68B2B0BDFF2568B2B4
:10109000B0BD00BFB0B14288A2B1C26892B10289AE
:1010A00082B1B0B504460D46FFF7E6FDE26823893C
:1010B0002046294600F00AF80446FFF7EDFD2046D9
:1010C000B0BD00BF4FF0FF30704700BFF0B583B038
:1010D000029268B302785AB34FF0FF0421B34288FA
:1010E00012B34A6802B30A88F2B106461C460F469C
:1010F000FFF7C2FD38883D463FF006FDE0B1696864
:101100002A882F46054600F0D5FE30783F8802A990
:1011100022462B4600973FF079FD0024002808BFA7
:101120004FF0FF34FFF7B8FD60B203B0F0BD00BF71
:10113000FF2460B203B0F0BDFFF7AEFDFF2460B244
:1011400003B0F0BD70B5064600284FF0FF0009D08F
:101150000D4639B11446FFF78FFDC6E90454FFF779
:101160009BFD002040B270BD0020704700207047FA
:101170000020704790F83010062982BFFF2040B24F
:10118000704710B545F27011C1F2000104460846DF
:10119000902100F0B7FF204600F098F90020BDE84C
:1011A000104040B270470000002070470020704798
:1011B000D0F88C1061B1D0F8901049B1D0F89410EB
:1011C00031B1D0F8980000281EBF002040B270470F
:1011D00080B504A1E120FFF753FBFF20BDE880406C
:1011E00040B270476970616C5F6574685F6869647C
:1011F0005F696E697428293A206D697373696E6737
:10120000206574682066756E6374696F6E73000084
:1012100080B500F08BF8002080BD000044F2F8504B
:10122000C1F2000090F8220001280CBF0020704796
:1012300032F0A6BD10B5044644F2CC30C1F2000035
:101240004FF4E07100F05EFFD4E909014DF68362CE
:10125000C4F21B32A0FB0203A1FB020142F2606256
:1012600094F82000C1F2000294F82140D080980C3C
:101270001081890C00201470517010BD00291CBF12
:101280000020704732F0DABD80B584B042F6F040FD
:1012900044F2F85CC0F60600C1F2000C00689CF84D
:1012A0000A2000908DF8002044F21972C1F2000269
:1012B0005178D2F8023045F6B44012780902C0F6EF
:1012C000060041EA03410190180C1144DCF88C201F
:1012D000039068460291904704B080BD44F2F851F3
:1012E000C1F20001D1F89810084700BF10B544F2D0
:1012F000F854C1F20004D4F890008047D4F8880074
:10130000002808BF10BDBDE81040004710B544F2EA
:10131000F854C1F20004D4F88400002818BF8047B4
:10132000D4F89400BDE81040004700BF818A44F221
:101330001972C1F2000291800169002011607047AA
:1013400044F2F851C1F2000191F82C10012918BFA4
:1013500070473CF05DB800BFB0B542F26065C1F2C5
:101360000005044605F12800242100F0CBFE60684A
:1013700044F24021C0F20F01B1FBF0F04CF6CD4138
:1013800080B294F82D204843810C00206A81A97016
:10139000B0BD00BF05280BD84CF2674140F0F00209
:1013A000C0F6060101EB40111046FFF769BA00BF15
:1013B00001A1E020FFF764BA756E6B6E6F776E2047
:1013C00073797374656D206572726F72000000002E
:1013D00010B539F0E7FC44F2F854C1F2000494F877
:1013E0002C00012808BF39F0EFFC94F82F000128E9
:1013F00008BF39F011FD94F82200012818BF10BD74
:101400000020BDE8104032F0BBBC00BF80B53DF00D
:10141000BDFE44F2F850C1F2000090F82C00012803
:1014200018BF80BDBDE880403DF008BFB0B544F2B4
:10143000D865C1F20005044628463C2100F062FE52
:1014400042F2AC60C1F200004FF4C05100F05AFE0D
:1014500042F26061C1F200010022C1E90822D4E930
:10146000060328604AF6C000A881A88047F26900F8
:10147000AB604CF2FE03C6F66140A5F80F30A8231E
:10148000886146F264506B74FE23C0F27600EB7400
:10149000C8612089EB710861606844F24025C0F2A0
:1014A0000F05B5FBF0F0012388810020CB70CA81C5
:1014B000B0BD00BF44F2F851C1F2000191F82F1005
:1014C000012918BF70473BF0E3BF00BF10B50446C9
:1014D00045F2DC60C1F20000482100F013FE94F8F0
:1014E000301042F26062C1F200020020117110BDA2
:1014F00044F2F850C1F20000D0F89C00002808BF68
:101500007047004700487047C024001070B5A0FB2A
:101510000140B4F1805170F1000024BF002070BD83
:10152000204600F006FF05001CBF214600F0C8FD64
:10153000284670BD70B516460D46041F002808BF2A
:1015400070BD002E1CBF05F10800AFF300802B46D4
:101550005868002818BFA04238BF0346F8D319685E
:10156000CA18A24218BF5C6003D122681C4611440D
:10157000196021680A19824218BF606004D142686C
:101580006260006808442060002E1CBF05F108005E
:10159000AFF3008070BD10B5044600F035FE016861
:1015A0002046BDE810400122C4E70844401E491E01
:1015B000884370470821001DF7E72DE9F0410F46E9
:1015C0008046041F00F020FE066807B3B8F1000F44
:1015D000384622D0FFF7EEFFB84205463CBF002058
:1015E000BDE8F08106F10800AFF300802268AA424E
:1015F00038BF314615D3511B082931D36019002259
:1016000040F8041B31462560FFF794FF28E0404670
:10161000FFF7C1FF0020BDE8F081BDE8F04100F018
:1016200088BE4868002818BFA04238BF0146F8D3DA
:10163000131983421BD103681A44954217D8531BD0
:10164000082B0AD343686219536023680068184462
:10165000401B106025604A6002E0226040684860DC
:1016600006F10800AFF30080201DBDE8F0810022E4
:101670003146384600F01CFE05000AD0414620687D
:10168000021F284600F09DFC00223146201DFFF776
:1016900051FF06F10800AFF300802846BDE8F08155
:1016A00053EA020C00F069802DE9F04B4FF0000680
:1016B000002B1FBFB3FA83F503FA05F424FA05F6ED
:1016C0005E4012BF1643B2FA82F502FA05F4C5F184
:1016D00020051EBF22FA05FC44EA0C04203556EA18
:1016E000044C4FEA144418BF641C4FF000084FF03C
:1016F0000009904271EB030C39D3002919BFB1FAEC
:1017000081F701FA07F6B0FA80F700FA07F6C7F199
:1017100020071EBF20FA07FC46EA0C062037B6FB5E
:10172000F4FCA7EB0507103F07F01F0BCBF12006D9
:101730002CFA06F60CFA0BFB44BFB3460026202F0A
:10174000A4BF5E464FF0000B5BEA060C08BF4FF0EB
:10175000010B19EB0B0948EB0608ABFB027C06FBFF
:1017600002CC0BFB03CCC01B71EB0C01C1E70B4699
:10177000024641464846BDE8F08B13B5084318BF02
:101780004FF0FF300146AFF30080BDE81C407047CA
:101790000FB41CB5084B06AA7B4469460090059817
:1017A00001F0FDF804460020694601F00BF92046DF
:1017B0001CBC5DF814FB0000291200000FB41CB51E
:1017C0000C0007AA009007D04142A14202D3204456
:1017D000401E01E04FF0FF30074B7B44694601900B
:1017E000069801F0DCF80021002C01D0009A11705D
:1017F0001CBC5DF814FB0000F111000070B504463C
:1018000085690068C10601D5302600E02026C007A2
:1018100007D070BDD4E9012130469047206A401CB2
:1018200020626D1EF6D570BD70B5044685690078DE
:10183000C00707D170BDD4E9012120209047206A5C
:10184000401C20626D1EF6D570BD70B50C46054675
:10185000012A05D02878800600D5EA69002302E035
:10186000012305E05B1C934202D2E05C0028F9D121
:10187000A869E618C01AA861286A18442862284690
:10188000FFF7BCFF04E0D5E9012114F8010B9047F4
:10189000B442F8D32846FFF7C7FF70BD2DE9F041E9
:1018A0000646002410687529314616A510D001F0AF
:1018B00066F9002802DA404213A507E031688A077A
:1018C00001D512A502E0490704D511A5012401E0C4
:1018D00001F05EF900210A2206F1240709E0B0FBBD
:1018E000F2FCB0FBF2F302FB1C00303078541846D7
:1018F000491C0028F3D123462A463046BDE8F04172
:1019000000F0E0BD000000002D0000002B000000F2
:10191000200000002DE9F0418046D21D22F0070290
:101920000025D2E90002F52915A614D0011E72F196
:10193000000106DA0023D0EB030063EB020211A6DC
:1019400008E0D8F800108B0701D50FA602E0490780
:1019500001D50EA601251146002408F1240704E054
:1019600000F05BFD30323A55641C50EA0102F7D1B9
:101970002B46324621464046BDE8F04100F0A2BD6C
:10198000000000002D0000002B00000020000000DF
:10199000F0B40D460188090502D5214C7C4402E0D3
:1019A0001F4C7C440E34002100F1240608E002F0B4
:1019B0000F071209E75D42EA03721B097754491CBD
:1019C00052EA0307F3D102780023120704D5702DE1
:1019D00006D009B1022311342246F0BC00F072BDDA
:1019E00001231034F8E770B504460D46214610680F
:1019F00001F0CEF8024629462046BDE8704000239B
:101A0000C6E7D21D22F00703D3E90023C0E703682D
:101A1000126843F0200303600823C3610023B7E783
:101A2000620904002DE9F05F894604464FF0000A80
:101A3000DFF874B1FB44C0F820A02046E168884775
:101A4000002874D0252806D0D4E901219047206AC7
:101A5000401C2062F1E700265F462046E168884787
:101A60002028054607DB312D05D2781910F8200C07
:101A700008B10643F1E7B00701D526F00406C4F823
:101A80001CA00027C4F818A02A2D09D0284631F040
:101A9000D7FE38B304EB8708303DC8F8185019E07A
:101AA00059F8041B204604EB87029161E1688847DE
:101AB000012F054618D1E069002820DA26F020061B
:101AC0001DE0D8F8180000EB800005EB400030382E
:101AD000C8F818002046E1688847054631F0B0FE96
:101AE0000028EED1012F0AD02E2D08D12046E16822
:101AF00088477F1C0546022F46F02006C4DBA069FC
:101B0000002803DA404246F00106A061F00701D048
:101B100026F010066C2D0BD0682D09D04C2D39D035
:101B20006A2D35D0742D35D07A2D33D016E038E0BB
:101B3000E1682F4620468847B842054609D16C2FF8
:101B400026D04FF48060E16806432046884705466A
:101B500004E06C2F1AD04FF4807006430DB3A5F14A
:101B60004100192802D8203546F400664A46294625
:101B7000204626604E46FEF7BFFB80B101280BD001
:101B8000F61D26F0070000F1080956E74020E4E7BB
:101B90008020D8E70020D6E706F104094DE7284663
:101BA00052E7206ABDE8F09FF20804000FB400B5C8
:101BB0008DB010A9099000910B904FF0FF300A9062
:101BC00000200C90064878440690064878446A46FF
:101BD00007900F9909A800F02DFF0DB05DF814FBD8
:101BE0008B0E0000A30E00002DE9FF5F1D464FF095
:101BF000FF3B91464FF000085F46D5E90146A969D1
:101C000001987F1C8847296A824688470028F6D1B8
:101C1000BAF1FF3F0CD0002E24F4C06419DD600639
:101C200014D5BAF12B0F09D0BAF12D0F0ED103E064
:101C3000584604B0BDE8F09F44F48064A969019857
:101C40007F1C8847761E8246002E02DDBAF1300FD7
:101C500003D0B9F1000F26D032E0A969761E0198B1
:101C60007F1C44F400748847002E824605DDBAF1DB
:101C7000780F06D0BAF1580F03D0B9F1000F10D089
:101C80001EE0B9F1000F02D0B9F1100F18D1A96907
:101C9000761E01987F1C24F4007488478246102029
:101CA00002E0082000E00A20814609E0A96908FB5B
:101CB0000908761E01987F1C44F400748847824608
:101CC000002E05DD4946504600F09FFE0028EDDA63
:101CD000E96901988847A00502D46FF00100A8E7E0
:101CE000E00725D1600613D5600502D5C8F10000D4
:101CF00000E0404629680A1D2A600968220501D5CE
:101D0000087015E0220701D5088011E008600FE097
:101D10002868011D29600068210502D580F800802F
:101D200006E0210702D5A0F8008001E0C0F800809D
:101D300038467EE72DE9FF5F4FF0000899461446CC
:101D400046469169D2E901A7DDF838B00198884785
:101D5000054659EA0B0005D009E0A1690198761CF7
:101D600088470546216A284688470028F5D1681C1F
:101D700003D05FEACA7005D015E04FF0FF3004B021
:101D8000BDE8F09F2068011D2160D0F800800AE0C6
:101D90005FEACA7001D108F8015BA169761C01985D
:101DA0007F1E88470546002F1ADD681C18D0B9F140
:101DB000000F0DD0E81705EBD060421120F01F0096
:101DC00059F822102A1A012090400142E0D107E080
:101DD000BBF1000FDCD12846216A88470028D7D004
:101DE000E16901988847BBF1000F07D1002E05DD9E
:101DF0005FEACA7002D1002188F80010A068B842DA
:101E000003DDBBF1000F03D017B16FF00100B6E79F
:101E10003046B4E70B460146184600F046BE40EA9D
:101E2000010310B59B070FD1042A0DD310C808C9B0
:101E3000121F9C42F8D020BA19BA884201D9012059
:101E400010BD4FF0FF3010BD1AB1D30703D0521CA4
:101E500007E0002010BD10F8013B11F8014B1B1BDF
:101E600007D110F8013B11F8014B1B1B01D1921E49
:101E7000F1D1184610BD10B5431C02E010F8011B4B
:101E800071B18107FAD14FF0013202C88C1A8C432C
:101E900014EAC211F9D0C01A0A0603D0C01E10BD40
:101EA000C01A10BD0A0401D0801E10BD0902FCD06A
:101EB000401E10BD032A40F2308010F0030C00F0E9
:101EC000158011F8013BBCF1020F624498BF11F874
:101ED00001CB00F8013B38BF11F8013BA2F104022D
:101EE00098BF00F801CB38BF00F8013B11F00303A5
:101EF00000F06780083AC0F0088051F8043B083AC7
:101F000051F804CBA0E80810F5E7121D5CBF51F8AA
:101F1000043B40F8043BAFF30080D20724BF11F824
:101F2000013B11F801CB48BF11F8012B24BF00F889
:101F3000013B00F801CB48BF00F8012B7047431A62
:101F400028BF9A427FF6B6AF10441144032A40F2EC
:101F5000268010F0030F1EBF11F8013D521E00F83D
:101F6000013D10F0030F7FF4F6AF11F0030300F012
:101F70006D80083AC0F00B8051F8043D083A51F8E2
:101F800004CD40F8043D40F804CDFFF7F3BF121D27
:101F90005CBF51F8043D40F8043DAFF30080D20728
:101FA00024BF11F8013D11F801CD48BF11F8012CF3
:101FB00024BF00F8013D00F801CD48BF00F8012C16
:101FC000704710B5203AC0F00B80B1E81850A0E877
:101FD0001850B1E81850A0E81850203ABFF4F5AFF7
:101FE0005FEA027C24BFB1E81850A0E8185044BF53
:101FF00018C918C0BDE810405FEA827C24BF51F8C0
:10200000043B40F8043B08BF7047D20728BF31F8B3
:10201000023B48BF11F8012B28BF20F8023B48BF04
:1020200000F8012B7047431A28BF9A427FF6C9AFC8
:102030001044114410F0030F1EBF11F8013D521E51
:1020400000F8013D10F0030F7FF4F6AF103AC0F036
:102050000A8010B531E9185020E91850103ABFF441
:10206000F9AFBDE81040530724BF31E9081020E95B
:10207000081044BF51F8043D40F8043D12F0030F2E
:1020800008BF7047D20728BF31F8023D48BF11F89A
:10209000012C28BF20F8023D48BF00F8012C7047F2
:1020A00002F0FF0343EA032242EA024200F00AB8C8
:1020B00002F0FF0343EA032242EA024200F024B89E
:1020C0004FF000020429C0F0128010F0030C00F061
:1020D0001B80CCF1040CBCF1020F18BF00F8012BDF
:1020E000A8BF20F8022BA1EB0C0100F00DB85FEAAD
:1020F000C17C24BF00F8012B00F8012B48BF00F879
:10210000012B70474FF0000200B5134694469646E7
:10211000203922BFA0E80C50A0E80C50B1F12001FA
:10212000BFF4F7AF090728BFA0E80C5048BF0CC0A8
:102130005DF804EB890028BF40F8042B08BF704706
:1021400048BF20F8022B11F0804F18BF00F8012B78
:10215000704700000000000030B44FF0013C50F820
:10216000042B51F8043BCCFA52F4D51A20D1FCB917
:1021700050F8042B51F8043BCCFA52F4D51A17D17D
:10218000B4B950F8042B51F8043BCCFA52F4D51AE8
:102190000ED16CB950F8042B51F8043BCCFA52F430
:1021A000D51A05D1002CDAD030BC4FF000007047B2
:1021B00029BAB1FA81F111F01801D1F1200084405F
:1021C000F2D1CA40CB4012F0FF0213F0FF0330BC43
:1021D000D01A7047704770477047000008487CB5B8
:1021E0007844009007487844009C0546019004E03C
:1021F0002046016808448047241DAC42F8D17CBDCC
:10220000A8A40400A6A4040010B5FFF77BF90830C9
:1022100010BD704770477047704738B504460A468E
:1022200000206946AFF30080002808BF38BD024691
:102230000099204600F078FC012038BD012001F013
:10224000D3B8F8B5AFF30080054600200C460C204B
:1022500000BF0646A819A0420DD9324669460020A3
:10226000AFF30080070008BF01F0BEF80098A0425D
:1022700018BF0546C419FFF7C7FF05600746F01DE4
:1022800020F007004619284600F03EFCB44208BF83
:10229000F8BDA21B31463868BDE8F84000F044BCE8
:1022A0000844401E491E884370470821001DF7E777
:1022B0002DE9F04117460E460446FFF7F6FFA0420F
:1022C000054633D9002F1CBF06F10800AFF300808C
:1022D00030467468F4B12168A94217D305F10802A9
:1022E00091423CBF6168416007D3626861194A60EE
:1022F0002268521B0A6041602560002F1CBF06F156
:102300000800AFF30080201DBDE8F081204664681E
:10231000002CE0D129463046FFF77FFF0028D7D1B7
:10232000002F1CBF06F10800AFF300800020BDE8BD
:10233000F08110B50446FFF767FF01682046BDE84D
:1023400010400122B4E70844401E491E88437047EC
:102350000821001DF7E72DE9F04791460C4680461D
:10236000FFF752FF0668604234EA000001D1042CF6
:1023700002D20520BDE8F087601E40F007074846FE
:10238000FFF7E6FF484505469CBF0620BDE8F087FD
:1023900006F10800AFF3008074683046002C2FD09F
:1023A0002368211D494207EA0102934224D9991A60
:1023B0008D4221D84AB1214614440B689B1A2360F0
:1023C0004B6863600A6041600846226805F10801B5
:1023D0008A4205D36119521B0A6025604160084694
:1023E0006168416006F10800AFF30080241D002001
:1023F000C8F80040BDE8F08720466468002CCFD1C3
:1024000029463046FFF709FF0028C5D106F108002C
:10241000AFF300800620BDE8F08730B5B0F10A02C6
:1024200071F100034FEA900E4EEA817EB0EB0E0090
:1024300061EB91014FEA101E4EEA017E10EB0E0097
:1024400041EB11114FEA102E4EEA016E10EB0E0017
:1024500041EB11214FEA104E4EEA014E10EB0E00F7
:1024600041EB1141401841F100014FEAD00040EA30
:1024700041704FEAD1014FEA810444EA907410EBB5
:10248000800544EB01046D1944EB0404521BA34185
:102490004FF0000348BF0A3200D530BD401C41F167
:1024A000000130BD10B5FDF7A9FE006810BD10B5E4
:1024B0000446FDF7A3FE046010BD0B460146184616
:1024C00001F0F4BC2DE9F0470D46994692460446CA
:1024D00000F124080168880604D5E06921F01001A4
:1024E000216000E00120A84201DD471B00E0002739
:1024F000A1697A1902EB0900081AA0612078C006C8
:1025000002D42046FFF77AF9002608E0D4E9012139
:102510001AF806009047206A401C761C20624E453F
:10252000F4DB2078C0060AD52046FFF767F906E0FD
:10253000D4E9012130209047206A401C2062381ED7
:10254000A7F10107F4DC07E0D4E9012118F8050040
:102550009047206A401C2062281EA5F10105F3DC8B
:102560002046FFF761F92078000602D50220BDE879
:10257000F0870120FBE72DE9FF4F0C461E464FF088
:10258000FF378BB0D2E90001DDF860800A908A46FF
:10259000C1F30A5505B93D46002108464FF0000039
:1025A000BAF1000F00F4400005DA00EB80004FF4B0
:1025B000400101EA50004FEA9059B9F1010F00DDE6
:1025C000B9460A9850EA4A000ED044F61050A5F2D7
:1025D000FF3545432F14B8F1000F1ED07542291E58
:1025E0001EDDC9F100021CE0B8F1010F4FF0000040
:1025F00001D0302103E0F24305E02154401CB042F9
:10260000FBDB30460022002121540B99C1F80880E1
:10261000C1E900200FB0BDE8F08FBD1B6D1CDEE7E7
:102620004A4600DA694206A800F060FD06AB93E86E
:10263000070003AB83E8070050460A992EF0D2FC4E
:102640008DE80700A0F500501F3800900398002D7A
:102650000ADD42F21F014A460844002303A9039001
:1026600068462EF03BFF09E0A0F500504A461F38AF
:10267000002303A9039068462EF045FF8DE807006C
:102680000004000C03D04FF0FF30410800E010467A
:10269000B8F1000F03D00022009215461EE0751E0F
:1026A00005D4FFF7BAFE303262556D1EF9D5B34638
:1026B0000122084302D000227F1C04E02078302849
:1026C00001D100227F1E002A099784D01DE0112D20
:1026D00007DAFFF7A2FE303262556D1C50EA0102A4
:1026E000F5D1084302D00098C8B10EE00021681E61
:1026F00005E0235C625C63542254401E491C814205
:10270000F7DBAB46A81B401E0990002004F80B0025
:102710000B98099AC0F80880C0E9002B7AE71126C7
:102720004FF0000857E72DE9F04F88460446D21DC8
:1027300022F0070191B0D1E90001CDE90A0130F0A2
:10274000EFFD02460B98C00F01D02D2007E0206856
:10275000810701D52B2002E0202101EAC000032AD5
:10276000099001D0072A05DB03464146204600F0C8
:102770002DFA0BE12078800601D5E06900E0062003
:10278000B8F1650F814606D0B8F1660F18D0B8F1E0
:10279000670F70D131E00020B9F1110F009001DB1B
:1027A000112301E009F101030AAA01A90CA8FFF70E
:1027B000E2FEDDE90C70002609F10105834647E0E1
:1027C00001204B4600904FF000470AAA01A90CA82F
:1027D000FFF7D1FEDDE90DB00C995D46002610B97A
:1027E00009F101000D18B9EB050003D4C0F1FF3663
:1027F00009F10105A5EB09002BE0B9F1010F01DAA0
:102800004FF001090020B9F1110F0090484601DD99
:10281000112300E003460AAA01A90CA8FFF7ABFEAA
:10282000DDE90C704D4600268346207800070AD467
:10283000AB4500DA5D4601A8012D04DD411911F810
:10284000011C302907D04F4502DA17F1040F04DAD2
:10285000012082460FE06D1EEEE7002F02DCED1B2B
:102860003E4403E0781CA84200DD7D1CB81B00F14B
:10287000010A4FF000472078000703D4AA4501DB86
:102880004FF0FF3A0021B7F1004F0DF143088DF8EA
:10289000431024D002202B23002F01DA7F422D2366
:1028A0000A21021EA0F1010000DC5FB197FBF1FCE0
:1028B00097FBF1F201FB1C7C17460CF1300C08F879
:1028C00001CDEEE7A8F1010003702188090501D5CB
:1028D000452100E06521A0F1010800F8011C0998DC
:1028E0000FA9A1EB0807FF1D00B10120411901EB61
:1028F000EA70A1693844081A401EA0612078C00619
:1029000002D42046FEF77AFF099828B1D4E90121C4
:102910009047206A401C20622078C00622D52046BD
:10292000FEF76CFF1EE0002E04DBB34502DD01A8BC
:10293000805D00E03020D4E901219047206A401CEE
:102940002062761CAAF101005FEA000A0AD100F0B9
:10295000D1F8C0680168405CD4E901219047206A41
:10296000401C2062281EA5F10105DCDC07E0D4E94B
:10297000012118F8010B9047206A401C2062381E84
:10298000A7F10107F3DC2046FEF74EFF032011B04C
:1029900041E6000001694A1C02610878704700B5F1
:1029A0008FB0CDE901310021059105497944CDE988
:1029B000031011466846FFF735F80FB000BD000060
:1029C000E5FFFFFF0A6802F8010B0A607047D1E9D2
:1029D00000239A4202D2531C0B601070704710B54E
:1029E000436913B1AFF3008001E0FEF72EFF012031
:1029F00010BD127800F124010A7000224A700122F1
:102A0000EDE711684FF0FF32E9E73A2800D230389D
:102A100020F02002412A01D3A2F13700884201D3DD
:102A20004FF0FF30704700000268114413780160D6
:102A300018467047D1600549794451610449794489
:102A4000116200211161114600F096B9EDFFFFFF00
:102A50002B010000426842B1016811F8013B23B12B
:102A6000521EC0E90012184670470121C160881E3D
:102A7000704742685AB1C368016843B983688B42A2
:102A800005D0491E521CC0E90012002070474FF0CB
:102A9000FF30704710B5002000F09FFCFDF7A7FB4A
:102AA000BDE81040012000F017B82DE9F0410746BD
:102AB00015460E461020FFF73CFC04000AD0676064
:102AC000C4E9026500F01BF8016821600460002081
:102AD000BDE8F0810120FBE701491820ABBEFEE70D
:102AE0002600020010B500F005F8001D10BD00BF63
:102AF00055E2030010B5FEF705FD203010BD10B5FE
:102B0000FEF700FD383010BD002140F8041B40F8EE
:102B1000041B11F0DCBE0C207047801A0844401ED4
:102B2000491E88431044704770B5144605468C46CC
:102B30004368002B18BF634538BF1846F8D30268B6
:102B40001044604508D06646604604220821FFF71D
:102B5000E4FF811B8446641A2946CCF80040BDE896
:102B6000704000220CF10400FEF7E4BC10B50446EE
:102B7000FFF7B8FF0068005D00F0010010BD0968B4
:102B80004A0501D540B27047C905FCD500B270476F
:102B900009684A0501D5C0B27047C905FCD580B2A5
:102BA000704711680268006A530501D508700AE091
:102BB000D30501D5088006E0130603D5C217C1E985
:102BC000000200E008600120704700002DE9F0419C
:102BD0001F46044603260168072A01F4006004DB4F
:102BE00008B116A505E016A503E008B115A500E09B
:102BF00015A521F010002060A069C01EA0610FB1D2
:102C0000401EA0612046FEF7F9FD4FB1D4E9012135
:102C100038469047206A401C2062C01C206206E0B3
:102C2000206AFAE7D4E9012115F8010B9047761ED6
:102C3000F8D22046FEF7F8FDBDE8F0814E414E0087
:102C40006E616E00494E4600696E66002DE9FF5FB9
:102C500015468A460446DFF8AC80F8440027D8E9D8
:102C600000103E46CDE9001010E03AF816106A4612
:102C700002A800F07BFE411C07D02178890603D50D
:102C8000E269391891420DD80744761C20788006F5
:102C900002D5E069B84205DDAE42E6DB3AF816003F
:102CA0000028E2D1A069C01BA0612046FEF7A6FD66
:102CB000D8E90010CDE90010002017E03AF818100C
:102CC0006A4602A800F052FEB0F1FF3F81460BD0E9
:102CD00000250DF1080B05E0D4E901211BF80500E2
:102CE00090476D1C4D45F7D308F10100B042804676
:102CF000E4DB206A384420622046FEF795FDBDE8FB
:102D0000FF9F00003AF7030030B4002100F12404D3
:102D100008E002F00705D208303542EA4372DB08CA
:102D20006554491C52EA0305F3D10468002310A23C
:102D3000250708D504F020040C4304D0C4690123FE
:102D40000CA2641EC46130BCFFF7BCBB10B50446C6
:102D500021461068FFF71CFF02462046BDE81040E0
:102D60000023D1E7D21D22F00701D1E90023CBE7F0
:102D700000000000300000002DE9F34F4FF0000A82
:102D80000C4656468DB001200C9001F10C000B90C2
:102D900062690B9801219047051E2DD0252D2CD05E
:102DA000216A8847C0B162690B9801219047216A66
:102DB00088470028F7D16269411E0B98904700E0D0
:102DC000761CA1690D988847216A88470028F7D1A9
:102DD000E1690D988847DBE7A1690D988847A8420B
:102DE000074601D1761CD3E7E1690D9888477F1C1F
:102DF00002D1BAF1000F6FD06BE162690B98002726
:102E00003D46394690472A2804D162690B98012132
:102E100090470125DFF8D08262690B980121904725
:102E2000A0F130010A290AD24745E5DC07EB87010A
:102E300000EB4107303FDFD445F01005ECE7E90631
:102E400001D46FF000476C280AD04C2814D06828B1
:102E500015D06A280DD074281CD07A281AD01DE00D
:102E600062690B98012190476C2802D045F0040557
:102E700014E045F002050DE045F020050AE0626926
:102E80000B9801219047682802D045F0080505E01D
:102E900045F4006562690B9801219047C4E9015728
:102EA00065283DD019DC58287AD00CDC452837D06D
:102EB00004DC252826D041289ED131E046282FD099
:102EC000472899D12CE05B2877D0612828D0632847
:102ED0007CD0642823D15AE0F6E06F2848D008DC83
:102EE00066281DD067281BD0692821D06E2816D1EE
:102EF00027E0702845D0732868D0752847D07828F7
:102F00000DD14DE0A1690D988847252805463FF46D
:102F100069AFE1690D9888476D1C3FF46AAFD8E04E
:102F20000D9923466A466FF00100AFF30080C5E0BB
:102F300045F0400023464FF000026060A80736D4F9
:102F40003EE0E8077FF447AF2068011D216000687C
:102F5000290501D506701BE7290701D5068017E76B
:102F6000A90703D5F117C0E9006111E706600FE773
:102F700045F0400023464FF008026060A80716D4D1
:102F80001EE040F60E0125EA0100606016E045F003
:102F9000400023464FF00A026060A80707D40FE004
:102FA00045F040006060A80708D5234610220D991F
:102FB0006FF00100AFF3008080E007E010222346AD
:102FC0000D996FF00100FEF70FFE77E04FF000095A
:102FD00063284F46C8464B46CB4602D05B2806D0F6
:102FE00038E0E80601D40120A060012732E06269E0
:102FF000D4F80CB00B98012190475E2807D14FF010
:10300000010949466269D4F80CB00B9890472169D0
:1030100039B900210A4603AB43F82120491C08298D
:10302000FADBD8B3216949B308F1010862690B984A
:10303000012190475D28F4D1B9F1000F09D000209B
:1030400003A951F82020D24341F82020401C082831
:10305000F7DB03AB2069002820794FEA40701ED0CF
:103060005B462246CDF80080CDE901970D990028F6
:103070006FF0010020DAAFF300801FE0C11703AA50
:1030800000EBD1614B1121F01F0102EB8302411AC9
:1030900013680120884003431360C7E719E00D99C6
:1030A000224600286FF00100009702DAAFF300809B
:1030B00004E0FEF73FFE01E0AFF3008000280ADAEB
:1030C000401C06D10C9820B14FF0FF300FB0BDE886
:1030D000F08F5046FAE7E90701D10AF1010A0644E8
:1030E00000200C9054E60000CCCCCC0C2DE9F0472D
:1030F000814616468AB0354878440DC88DE80D00E3
:1031000032487844801C03AC0DC884E80D0041F6B9
:103110009B300844372190FBF1F290FBF1F5A5F1CB
:10312000800501FB12041B3C02D56442012000E033
:103130000020DFF898A080460027FA44AAF1BE0AD2
:103140000EE0E0070AD03246684607EB470101234C
:103150000AEB81012EF0D7F98DE8070064107F1C7F
:10316000002CEED1194F7F44AE3F19E0E80715D08F
:1031700007EB04100DF1180A90E80E008AE80E0023
:10318000C068F04201D1981908903246012306A97F
:1031900003A82EF0B8F903AB83E807006D10641C98
:1031A000002DE3D14FF0010332466946B8F1000F1C
:1031B00003A802D02EF092F901E02EF0A4F9C9E99B
:1031C0000001C9F808200AB0BDE8F08720F3030029
:1031D00010B565485421FEF795FF64485421FEF769
:1031E00091FF63485421FEF78DFF62485E49624AB1
:1031F000624B01605D4810605D4A1A60431C0B65BC
:10320000511C01650120106557484C3011F05FFBDF
:1032100056484C3011F05BFB55484C3011F057FBD1
:10322000574811F054FB58484F4A56A1784400F0D3
:1032300051FB20B9544878440A3800F0E1FB544867
:103240004A4A52A1784400F045FB20B950487844DE
:103250000A3800F0D5FB4F48454A4CA1784400F0AD
:1032600039FB20B94B4878440A3800F0C9FB4023A9
:103270003D48DC000021224600F09EFA20B1424881
:103280007844543800F0BCFB3848224640230021E3
:1032900000F092FA20B13E487844543800F0B0FB78
:1032A000334822461023002100F086FA002806D079
:1032B00038487844BDE81040563800F0A1BB10BD36
:1032C0002B482DE9F041006D2D4E20F001043046D1
:1032D000AFF30080244D4C352846AFF300802248E0
:1032E00000F044FA2846AFF300802846AFF3008090
:1032F0001E4D4C352846AFF300801C4800F036FACE
:103300002846AFF300802846AFF30080184D4C35B7
:103310002846AFF30080164800F028FA2846AFF39D
:1033200000802846AFF3008014E0206D20F00105F6
:1033300004F14C000746AFF30080204600F016FA77
:103340003846AFF300803846AFF300802046FEF7E2
:1033500022F92C46002CE8D13046AFF30080084813
:10336000AFF30080BDE8F081202500107425001027
:10337000C8250010D4040010D8040010DC0400108C
:10338000E00400107200000004F203007700000067
:10339000F0F10300DCF103002DE9F0410646FFF7F0
:1033A000AEFB8046454613E016B1E068B0420ED150
:1033B00020682860D4E90101D8F8007088472046C9
:1033C000FEF7E9F8D8F80000B842EBD100E0254656
:1033D0002C68002CE8D1BDE8F08110B500F0F8FAB7
:1033E000BDE8104000F0EFBA10B500F011FBBDE8E9
:1033F000104000F0E8BA70477546FEF783F8AE4615
:1034000005006946534620F00700854618B020B5F0
:10341000FDF7CAF8BDE820404FF000064FF0000766
:103420004FF000084FF0000BAC46ACE8C009ACE828
:10343000C009ACE8C009ACE8C00921F007018D461D
:10344000704700002DE9F04F04460D46D21D22F0D2
:10345000070089B0D0E90097484639462FF060FF51
:103460000246F80F01D02D2307E02068810701D51F
:103470002B2302E0202101EAC0038DF820300BB19C
:10348000012000E00020032A824601D0072A04DB45
:1034900029462046FFF79AFB3FE12078800601D4B9
:1034A0000D2500E0E569C7F30A560D2D49DA002124
:1034B0004FEA175B08464FF00000002F00F4400071
:1034C00007DA00EB80004FF4400100EBD07001EA16
:1034D00060008115012901DD4FF0FF3100224FEA24
:1034E000850CBCF1180F06D31346ACF118004FF051
:1034F0008052C24003E04FF4801323FA0CF30CF126
:103500000C0CBCF1200F04D3ACF1200C09FA0CF028
:1035100001E007FA0CF000294FF0004801DD18B96E
:103520000FE00ED140450CD319EB02095F4121B9E0
:10353000404502D19F4329EA0209BBEB175F00D047
:10354000761C2088000502D57B48784402E07A4842
:103550007844193808AA302302F80A30037C0AF1AB
:103560000101002E0AF1020A53546A4602DC4FF0B0
:10357000300101E04FF031014FF001088DF80010EB
:1035800002D0A6F2FF3603E059EA470100D06B4EA5
:10359000002D02DC2178090704D54FF002082E2106
:1035A0008DF80110C44600210BE0C7F303433F012F
:1035B000C35C491C6D1E02F80830052908F101089A
:1035C00001DA002DF1DC00210CE000EB1973491C3D
:1035D0001B786D1E082902F808304FEA091908F116
:1035E000010801DA002DF0DC21688B0602D516E017
:1035F000A8F10108E04505DD02EB080313F8013CE2
:10360000302BF5D0B8F1000F09DD02EB080313F8F9
:10361000013C2E2B03D1090701D4A8F10108002D8C
:1036200005DD3E2102F808106D1E08F10108407CFE
:10363000002E02F8080008F1010804DA2D20764275
:1036400002F8080002E02B2002F808000A214FF4DB
:103650007A70864208F101080BDB96FBF0F33033F9
:1036600002F8083096FBF0F308F1010800FB13663E
:1036700001E0642E0CDB642096FBF0F3303302F89B
:10368000083096FBF0F308F1010800FB136601E037
:103690000A2E06DB96FBF1F0303002F8080008F144
:1036A000010896FBF1F001FB1060303002F80800D1
:1036B000A16908F1010808EB050202EB0A00081AEB
:1036C000A0612078C00602D42046FEF797F8216A50
:1036D00008AE01EB0A00206204E0D4E9012116F8EB
:1036E000010B9047BAF1010AF7D22078C00602D543
:1036F0002046FEF783F86E4609E016F8010B3E28D7
:103700000FD0D4E901219047206A401C2062B8F113
:103710000108F2D22046FEF787F809B00320BDE881
:10372000F08F206A2844206203E0D4E90121302090
:1037300090476D1EEBD3F8E705EF030002FCFFFF97
:1037400010B5436913B1AFF3008001E0FFF77EFAD3
:10375000012010BD128800F1240182840022C2845D
:103760000122EDE711684FF0FF32E9E72DE9F0475C
:1037700004464FF0FF380026C568D4E90497A8072F
:1037800018D0204600F01AFB384611F0A2F80028A5
:1037900000DA4646280502D54846FDF7FCFE4C21D6
:1037A0002046FEF7AFFC206D20F00100206530467A
:1037B000BDE8F0874046FBE72DE9F04704461E468A
:1037C00090460D46C7684C308146AFF30080B8077D
:1037D00014D0780212D44046B8F5807F09D0B0F5F5
:1037E000007F06D0B8F5806F08D1012604F12405CA
:1037F00006E0701E6FF07F41884201D3012409E08A
:103800002561E6616560E06820F4706040EA0800C8
:10381000E06000244846AFF300802046BDE8F08712
:103820002DE9F04716468846070010D006F14C00F7
:103830008146AFF300803046FFF798FF18F8010B80
:1038400061280DD0722805D0772841D105E00020ED
:10385000BDE8F0870125002405E00225042402E0EC
:10386000082448F2020518F8010B2B2806D062281C
:1038700009D018F8010C74280AD00BE045F00305B4
:1038800044F00204EFE745F0040544F00104EAE7E0
:1038900044F010043846214611F022F8411C17D09C
:1038A0000021316171604FF40071F560F161706168
:1038B000200704D530460222002100F0C3F9306D04
:1038C00040F0010030654846AFF300803046BFE766
:1038D0000026F8E72DE9F04115460E460746214C33
:1038E0002046AFF300802A4631463846FFF798FF5E
:1038F00005462046AFF300802846BDE8F0812DE95B
:10390000F0410E468046174D2846AFF30080164C16
:10391000206DC10704D0410804D020F00104F7E76E
:10392000224612E05420FEF704FD070017D0206D58
:1039300047F001010843542120653846FEF7E2FBB9
:1039400007F14C0010F0C3FF3A4631464046FFF7FE
:1039500067FF04462846AFF300802046CDE70024E9
:10396000F8E70000E0040010202500102DE9F041E8
:1039700016460C460546FFF7B5F8036893F80101B3
:10398000012807D0FF2C12D8185D80B101202C70BF
:10399000BDE8F081D3F807013246214603F2071350
:1039A000C7182846BC46BDE8F041002360474FF0E9
:1039B000FF30EDE710B50446AFF300802046BDE8C8
:1039C0001040FCF704BD002801D0FFF785B8704710
:1039D00010B5002102A000F035FA012010BD000052
:1039E000534947414252543A2041626E6F726D61B1
:1039F0006C207465726D696E6174696F6E00000091
:103A000010B500F039FABDE81040FFF7DCBF000048
:103A100010B5012805D0002103A000F013FA012001
:103A200010BD09A1F8E7000053494752544D454DD8
:103A30003A204F7574206F662068656170206D654F
:103A40006D6F7279000000003A2048656170206D4A
:103A5000656D6F727920636F727275707465640042
:103A60002DE9F05F054617460C46C86820F4201083
:103A700040F48000C860800602D5084600F0C1F915
:103A8000E06841F282014FF0FF3A0140022903D081
:103A9000204600F053F9B9E000F42041B1F5004FA1
:103AA0000FD1C00306D56168E06A884200D8084695
:103AB000606006E02069E0626060606910F00BFF02
:103AC000A061A0680022EEB200280DDAE1688B0543
:103AD0000AD4C043A06041F490302260E060606886
:103AE000411C61600670AAE0E0689146226040F4E3
:103AF0000050E060206978BB606910F0EFFE04F1CF
:103B000024054FF00108A8B1A08910F4407F08D027
:103B1000E069FEF70EFC206118B1E06840F4006037
:103B200017E0C4F81C802561E06820F4407040F480
:103B300080600EE0E069FEF7FCFB00282061F0D019
:103B4000E06840F4006010F4407FE06002D140F48F
:103B50008070E06020696060E06825696FF0010BAB
:103B6000C1051ED56168E06A884200D80846411B3D
:103B700004D02246284600F0EBF8E8BB1FB1E5620E
:103B8000C4E9015959E0681CE0626060E069401EC8
:103B9000A060E06840F48030E06030462E70BDE800
:103BA000F09F17B100F480320AE06068411C616048
:103BB0000670E0680A2E40F48030E06006D00022F3
:103BC000E16A6068814203D90B4602E00122F7E70F
:103BD0000346B4F80CC05B1B5FEA4C5C04D4D4F819
:103BE0001CC09C4500DD02B3814200D80146002B79
:103BF000A1EB0008E56200E008E0C4E9015907DD37
:103C000022461946284600F0A3F808B15046C6E7F8
:103C1000B8F1000F09D0A169E5626560A1EB080069
:103C2000A061E06840F01000E06047B16168A06901
:103C3000E562491B08446560A0615846AFE730461D
:103C4000ADE700002DE9F041044616460D464769F0
:103C5000007B80072ED0384610F040FE50BB3EB3AC
:103C6000012E02D0022E25D104E0204600F03EF9BC
:103C700005441DE0384610F02EFEE168002841F0B2
:103C80001001E16005DA204600F058F80120BDE897
:103C9000F081C9030BD56268E16A914200D81146F0
:103CA000A26911442269891A814200DD084605444F
:103CB000002D01DA0220EAE7E16A6068E2688142E9
:103CC00006D29103E06203D522F4003141F01002E4
:103CD000A6690027AE4213DCE16A814201D90B4696
:103CE00000E0034603EB060C2369ACEB030CAC4588
:103CF00006DD814201D98C4600E084469C4505D111
:103D0000A760276042F02000A5620DE0AD1BE669C8
:103D1000AE1B8142A66000D90846C01A281A20604E
:103D20005819606022F0200003490840E06000203C
:103D300084F84870ABE70000BFCFD7FFC16821F41B
:103D4000001141F08001C160002181600160704775
:103D50002DE9F74F15460C464FF0FF3B3848D76822
:103D6000D2F814A0074209D05046A96910F0BAFD54
:103D7000002819DB3248C0430740EF604FF000498C
:103D80006FF000484C4501D3464600E026460099B6
:103D90003B465046324610F0A8FDA96920F000428B
:103DA000B21A1144A96128B12846FFF7C7FF584647
:103DB000BDE8FE8FA41BE5D10020F9E770B50446ED
:103DC0000569C06A6168884200D80846E16821F444
:103DD0002011E160C90312D5A84208D02246411B38
:103DE0002846FFF7B5FF10B14FF0FF3070BD00203F
:103DF000E562C4E90150E06820F48030E060002012
:103E000070BD10B50446C06820F02000E060A16AD3
:103E1000A06988420DD02046FFF7D0FFE06820F46B
:103E2000405040F01000E060A06AA0612069E062AC
:103E3000606044F24001E0688843E06010BD00002B
:103E40001000020070B505460C460A2000E06D1C0B
:103E500010F04DFD35B128780028F8D102E0641C3F
:103E600010F045FD14B120780028F8D1BDE870406D
:103E70000A2010F03CBD000010B5014602A0FFF77B
:103E8000E1FF012010BD0000534947525452454400
:103E90003A2052656469726563743A2063616E27E3
:103EA00074206F70656E3A20000000002DE9F0412B
:103EB00014460D46074601F14C063046AFF300802C
:103EC000094B7B44224629463846FEF768FD0446E6
:103ED000287B000601D54FF0FF343046AFF3008059
:103EE0002046BDE8F08100000F00030010B5014638
:103EF000C268900703D0900607D5886A0AE0FCF7ED
:103F00007DF901210160881E10BD8B694868184445
:103F10000B69C01A91F848301BB191F84910401A4A
:103F200010BD1103FCD50028FADD401E10BD042091
:103F30007146084202D0EFF3098001E0EFF30880F8
:103F4000816901F0FAB80A2027F09DBA0420714671
:103F5000084202D0EFF3098001E0EFF308808169A5
:103F600001F0EFB810B545F2D462C1F20002136857
:103F70008C4693F84E10D3E9092E0029014609D04A
:103F8000187B98244843135C13FB04E393F85F30D9
:103F900013B110BD187B4843105C982210FB02E05F
:103FA0006246BDE8104002F0C9BB00002DE9F04FA9
:103FB0009FB0044645F2D4602178C1F20000D0F8E9
:103FC00000B0481E0E288BF84D102DD80C94DFE859
:103FD00000F01F2B30082B2B2B2B2B2B082B2B39D6
:103FE000120004F10C0013F0CEF80E90A07B00211B
:103FF0000D9124212FE004F10C0013F0C4F80E9071
:1040000013F0C2F824220B92012201210D9224E028
:1040100004F10C0013F0B7F800210E90A07B0D9175
:1040200024210B91012118E0FF208BF84D0000F0B6
:1040300005BC201D13F0A7F80E90A07900210D916A
:104040001C2108E004F11C0013F09DF80E90A07FE5
:1040500000210D9134210B9102219BF84D208BF80A
:104060000100FF2A8BF800008BF802008BF84C103F
:1040700000F0E483002800F0058100254FF0010ADC
:104080004FF40C7700244FF000094FF0000800BFF8
:104090005FFA88F60E98314613F073F8817801F0D4
:1040A000E001202902D1012106E000BF017901F0E1
:1040B000E001202918D10321415C01390C2913D8D2
:1040C000DFE801F007121E4C12125527353E077A21
:1040D0007100DBF834104C2308FB031208FB03F3D8
:1040E00001F803A073E000BFDBF834104C2308FB99
:1040F000031208FB03F382F83DA001F803A068E077
:10410000DBF834104C2308FB031208FB03F30327EE
:104110005AE0DBF834100022214400BF8B1801F86C
:1041200002A04C32E42A83F83D50F7D151E0DBF88D
:1041300034104C2308FB031208FB03F3092743E068
:10414000DBF83410002249448B1801F802A04C32ED
:10415000B2F5987F83F83D50F6D13AE0DBF83410A1
:104160004C2308FB031208FB03F304272CE0DBF8C5
:10417000341098224FEA480C08FB021308FB02F7A0
:104180000CF101024FF04C0C83F83D5002FB0C1374
:1041900002FB0CF201F807A04FF40C7701F802A023
:1041A00083F83D5015E0DBF834104C2308FB031274
:1041B00008FB03F30D2707E0DBF834104C2308FB62
:1041C000031208FB03F30C27CF544FF40C7782F84B
:1041D0003D509BF84C20DBF82C10931E08FB071178
:1041E000B3FA83F3012A4FEA531318BF5A00012A86
:1041F0004A7013D0022A40F021830A7802F0F802B4
:1042000002320A70DBF82C1008FB07F28B5C007896
:1042100003F00F0343EA00101BE000BF0D9B027880
:1042200023B10A7016E000BF000000000B7802F016
:10423000010203F0F8031A440A70DBF82C1008FBA3
:1042400007F200788B5C00F01E0003F00F0343EAD6
:10425000C000885413F018FA314613F033FADBF833
:1042600030104FF42D7208FB021108F10108C1F85B
:1042700048029BF8010009F59879804504F1E404AF
:10428000FFF406AFDDE90B1000EB010945F2D46045
:10429000C1F20000D0F800800020002119F80020B1
:1042A000CBB29A4288BF1346FF2A00F1010018BF23
:1042B00019460428F2D1D8F84840481C09F1C40531
:1042C000002688F8020000BF002700BFE85912F05E
:1042D000D3FD54F8260038440437182F80ED000A27
:1042E000F4D10136042E05F11805EDD1D8F83C00C3
:1042F00009F1440108F06EFFD8F8380009F184058F
:10430000294608F067FFD8F84000294608F062FF08
:10431000CDF83480D8E910180DF13C0A002253463C
:10432000002700BF51F8270058F82760002500BF7C
:10433000445972515C510435102DF9D10137042FC5
:1043400003F11003EED100204FF07E5158F8002009
:10435000115004301028F9D11FED4D1A0AF1100C3C
:104360000026BFEE000A5146D64600BF4FF0FF328E
:104370007346B0EE412A374693ED003A103323EEF0
:10438000033AB4EE423AF1EE10FAC4BFB0EE432A5B
:104390003A460137042FEFD1501C00F0B68058F890
:1043A0002640B2420FD058F822000AEB0212002336
:1043B000D558CF58CD50D750C558E758E550C750BD
:1043C0000433102BF4D10AEB061000EB860090EDBD
:1043D000002A624680EE022A334600BF01330AEB10
:1043E000031000EB860090ED003A58F8237022EE9F
:1043F000033A0025481990ED004A501990ED005AF3
:1044000023EE044A34EE054A80ED004A601990ED2F
:10441000004A781990ED005A23EE044A043534EE30
:10442000054A102D80ED004AE4D1032B02F1100261
:10443000D4D101360EF1140E1031032E0CF1100CF4
:1044400094D10AF1200C0AF130024FF0030E00BFA4
:104450000AEB0E1000EB8E0090ED001A58F82E605B
:1044600080EE011A614673461F46013B0AEB0310BA
:1044700000EB8E0090ED002A58F8235021EE022A1E
:10448000002000BF141894ED003A0C1894ED004A77
:1044900022EE033A33EE043A84ED003A341894EDF8
:1044A000003A2C1894ED004A22EE033A043033EE21
:1044B000043A102884ED003AE4D1012FA1F1100153
:1044C000D2DCBEF1010EACF1100CA2F11002BFD88B
:1044D0000021B7EE000A00BF0AEB011000EB8100DB
:1044E00090ED001A58F8210080EE011A002200BF5A
:1044F000831893ED002A043221EE022A102A83ED5C
:10450000002AF5D101310429E6D145F2D468C1F27F
:104510000008D8F80050DDE90DA7002019F80010B8
:10452000FF2903D02A6A1154EA6911540130042882
:10453000F4D16878E8B10024002600BFE1B2384623
:1045400012F01FFE407823F059FC012898BF01208B
:1045500019F80420F1B250FA86F000BF6B6A0136F8
:104560005A54F1B28842F9D8697801348C4206462F
:10457000E4D338460021002412F003FE407823F0F3
:104580003DFC012898BF01206978AA782873484328
:1045900028704AB1002000BFA9680C54A9780130E6
:1045A0008842F9D328780C46000610D0002000BFBE
:1045B000696AAA68095CAB69575C53F821307E1CB4
:1045C0005654D855297801308842F1D3AC784FF051
:1045D000000044B1002100BF6A685054AA7801313C
:1045E0009142F9D31046697881B10020296A6A683E
:1045F000095C6B69575C53F821307E1C5654D855C2
:10460000697801308842F1D3A87800E0002140B1F8
:10461000002000216A685054AA7801319142F9D3F0
:10462000697879B1002000BFE9696A68095C2B6983
:10463000575C53F821307E1C5654D85569780130A8
:104640008842F1D39AF80200A8B309F104040025C6
:10465000002600BFA078DAF82810C0F3011248192C
:104660008263A1788909C163617801F00301416324
:104670006178C1F3810101646178C1F30111416482
:10468000617889098164A17801F00301C164A1788E
:10469000C1F3810101652178C1F3400180F85E100A
:1046A000211D05F053F89AF802000136983586422C
:1046B00004F11004CED3D8F8009099F80280B8F134
:1046C000000F56D0D9F828E000234FF0980C4FF493
:1046D0002D75012403FB0CE191F8621001292FD004
:1046E000032917D0022941D1D9F80470F95C0029B7
:1046F0003CD0D9F81000D9F8306050F823200021C0
:10470000505C013110FB056080F82642F85C814264
:10471000F6D32BE0D9F80470F85C38B3D9F8100060
:10472000D9F8306050F82320002100BF505C0131DF
:1047300010FB056080F82642F85C8142F6D315E054
:10474000D9F80470F95C89B1D9F81010D9F8306043
:1047500051F82320002100BF505C013110FB05609F
:1047600080F82642F85C8142F6D300BF013343450E
:10477000B0D1DBF8487001200021B7EE000A00BF7D
:1047800057F82120002602EB810300BFB14205D17A
:1047900093ED001AB4EE401A04E000BF92ED001A47
:1047A000B5EE401AF1EE10FA06F1010618BF00202E
:1047B000082E02F10402E9D101310429E0D10028D8
:1047C00018BF00279BF802000B97B8B3DDF82C90B8
:1047D00000250026DBE90A01DBE904380D91DBF84E
:1047E000381000EB050EDBF818000C91DBF83C10DC
:1047F00058F8268050F82600DBE90C7A0E91DBE9A8
:10480000104CDBE9011253F82630CDE900800D98F9
:104810000297CDE9030A0C980E9F31443244CDE94A
:1048200005047046CDE908C9079701F09BFB9BF88A
:1048300002000136864205F19805CBD31FB0BDE8D2
:10484000F08F00002DE9F04F83B045F2D466C1F23D
:10485000000637680446386B4FF42D7804FB0800D7
:104860000D4604F07DFF30682946006B04FB08000C
:1048700004F00EFE30682946006B04FB080004F0CB
:1048800007FE30684FF40C76C06A05F1500104FB56
:10489000060004F007FEF86A95F8C61004FB06004F
:1048A00003F068FCF86A05F1A40C04FB060095ED22
:1048B000270AD5ED280A9CE80E10D5F8B460CDE99A
:1048C00000C604F035F9386B5FFA84F904FB080080
:1048D00049462A4600F0CAFF387B90B34FF04C0A95
:1048E000002604FB0AFB4FF0000800BF97F84D10AC
:1048F000042908D1796B604300FB0A10304405F0AD
:10490000F9FFB8B9387B796BD5F898200BFB00100C
:1049100095ED320A3044494601F024FC45F2D4605A
:10492000C1F20000006895ED330A406B04FB0A00F9
:1049300005F0D7FF387B08F10108804506F14C06E9
:10494000D4D303B0BDE8F08F45F2D462C1F20002C7
:1049500012684FF42D73126B00FB032003F0EEBBC3
:1049600045F2D463C1F200031B6800EE101AD3F8BD
:1049700030C04FF42D7300FB03C001EE102AB8EED7
:10498000C00AF8EEC10A01F093BBF0B581B045F260
:10499000D466C1F2000632680446106B4FF42D77DE
:1049A00004FB07000D4604F0DBFE30682946006B6F
:1049B00004FB070001B0BDE8F04004F069BD0A4601
:1049C00045F2D461C1F2000109684FF40C73C96A61
:1049D00000FB0313C1B2184601F00EB845F2D462D1
:1049E000C1F2000212684FF40C73D26A00FB03207C
:1049F00003F09EBF10B582B045F2D462C1F200024E
:104A000012684FF40C73D26A91EC020A00FB032087
:104A1000D1E902C2D1E9043E8C696146CDE900E4E6
:104A200004F086F802B010BD45F2D461C1F2000175
:104A300009684FF40C72C96A00FB021004F0C0BE92
:104A400045F2D462C1F2000212684FF40C73D26ACC
:104A500000FB032004F084B900F07EB870B545F285
:104A6000D464C1F200042268907858B10025002671
:104A7000906A284400F0CAFD226801369078983583
:104A80008642F5D3D06A517892F84C20BDE8704048
:104A900001F02EB945F2D462C1F200021368024659
:104AA000186B4FF42D7302FB03000B4611461A4698
:104AB00001F072BA45F2D460C1F20000006890F8CB
:104AC0004E00704745F2D462C1F2000212684FF402
:104AD0000C73D26A00FB032001F083BAF0B581B0F9
:104AE00045F2D467C1F2000716463A680446106BD7
:104AF0004FF42D7204FB02000D4603F0E1FA40B1C1
:104B000038684FF40C71C06A04FB0100294603F0B9
:104B100034FB46B138684FF40C71C06A04FB0100E5
:104B2000D0F89C00286101B0F0BD000070B545F2DE
:104B3000D464C1F200042068817861B100250026A8
:104B4000806A0D21284405F0DBFE2068013681785B
:104B500098358E42F4D370BDF0B581B02DED048B45
:104B600045F2D460C1F200000468002C00F07F80A0
:104B700060789FED419A01250026B7EE008A4FF438
:104B80002D77A070257300BF606800228555E0690D
:104B90008655606A8655206950F826000670206C9C
:104BA000A16B50F8260051F8261000BF9642B0EED7
:104BB000490A02F1010208BFB0EE480AA0EC010A5E
:104BC000A1EC010A042AF1D1A06C002150F82600C2
:104BD0008E42B0EE490A01F1010108BFB0EE480A69
:104BE000A0EC010A0829F3D1206B06FB070000F0B6
:104BF00016FBA0688555A06950F82600067001369E
:104C0000042EC1D100254FF40C7600BF206A00228B
:104C10004555606950F825000570606CE16B50F8EF
:104C2000250051F8251000BF9542B0EE490A02F167
:104C3000010208BFB0EE480AA0EC010AA1EC010A8B
:104C4000042AF1D1E06A05FB060000F082FB013581
:104C5000042DDBD1002500BF606B284401F05FF913
:104C60004C35B5F5187FF7D1FF2084F84D00BDEC29
:104C7000048B01B0F0BD00BF00000000F0B581B0B2
:104C800045F2D465C1F200052A68137B8BB10C464E
:104C9000516B58434C2200FB02100026214600F1C4
:104CA0004C0701F0FEFC28680136007B864238463E
:104CB000F4D301B0F0BD45F2D462C1F20002126833
:104CC0004FF40C73D26A00FB032004F073BD45F26D
:104CD000D462C1F2000212684FF40C73D26A00FB76
:104CE000032005F08BBF45F2D462C1F200021268C6
:104CF0004FF40C73D26A00FB032006F0C6B945F2EC
:104D0000D462C1F2000212684FF40C73D26A00FB45
:104D1000032004F039B845F2D462C1F200021268EF
:104D20004FF40C73D26A00FB032004F0BBBB45F2C6
:104D3000D461C1F2000109684FF40C72C96A00FB2A
:104D4000021003F000BF0000F0B581B045F2D46757
:104D5000C1F200073C680E4605465CB916F054FBEC
:104D600004215022012316F059FB04460028386024
:104D700000F0DF80042026706570A57000F040FD13
:104D8000A06216F041FB04210122042316F046FB29
:104D9000606016F039FB04210122042316F03EFB6B
:104DA000A06016F031FB04210422042316F036FB28
:104DB000206116F029FB04210422042316F02EFBA7
:104DC000606116F021FB04210422042316F026FB67
:104DD000A06116F019FB04210122042316F01EFB2A
:104DE000E06116F011FB04210122042316F016FBEA
:104DF000206216F009FB04210122082316F00EFBA5
:104E00006062042008F0B0F92063042008F0C4F9BF
:104E1000E062082000F0FCFF606316F0F5FA042160
:104E20000422042316F0FAFAA06316F0EDFA042126
:104E30000422042316F0F2FA206416F0E5FA0421A5
:104E40000422042316F0EAFAE06316F0DDFA0421E6
:104E50000422042316F0E2FA606416F0D5FA042165
:104E60000422042316F0DAFA0025A06416F0CCFA26
:104E700004210122042316F0D1FA216941F825000A
:104E800016F0C2FA04210422042316F0C7FAA16B1B
:104E900041F8250016F0B8FA04210422042316F084
:104EA000BDFA216C41F8250016F0AEFA0421042267
:104EB000082316F0B3FAA16C41F825000135042D42
:104EC000D4D1002516F0A0FA04210122042316F003
:104ED000A5FA616941F8250016F096FA042104222A
:104EE000042316F09BFAE16B41F8250016F08CFACA
:104EF00004210422042316F091FA616C41F8250084
:104F00000135042DDED1002516F07EFA04210122A0
:104F1000082316F083FAA16941F825000135042D14
:104F2000F2D1002084F84E00FFF716FE204601B0B3
:104F3000F0BD0024FAE745F2D462C1F20002126823
:104F4000D369926A185C982310FB032005F0D8BC43
:104F500045F2D462C1F200021268D369926A185C09
:104F6000982310FB032006F0BBB845F2D461C1F2D0
:104F7000000109684FF42D72096B00FB021001F06B
:104F8000DBB945F2D461C1F2000109684FF42D721A
:104F9000096B00FB021001F0E4B945F2D461C1F2E3
:104FA000000109684FF42D72096B00FB021001F03B
:104FB00006BA45F2D461C1F2000109684FF42D72BE
:104FC000096B00FB021001F029BA45F2D461C1F26D
:104FD000000109684FF42D72096B00FB021001F00B
:104FE00032BA45F2D461C1F2000109684FF42D7262
:104FF000096B00FB021001F03BBA45F2D461C1F22B
:105000000001096881F84E00704745F2D461C1F291
:10501000000109684FF42D72096B00FB021000F0CB
:105020008EB9000070B545F2D464C1F20004216865
:105030000A7B7AB1496B50434C2200FB02100025D9
:1050400000F14C0601F05EFB20680135007B8542D3
:105050003046F5D370BD0000F0B581B045F2D4669E
:10506000C1F200063268137B8BB10C46516B58437A
:105070004C2200FB0215002734F82710284601F0C7
:1050800095F830680137007B4C358742F4D301B086
:10509000F0BD45F2D461C1F2000109684FF42D72F0
:1050A000096B00FB021006F0BFB845F2D461C1F2F3
:1050B000000109684FF42D72096B10FB021004F017
:1050C000EAB945F2D462C1F2000212684FF40C73DF
:1050D000D26A00FB032004F077BB45F2D462C1F230
:1050E000000212684FF40C73D26A00FB032006F032
:1050F000F1B845F2D462C1F2000212684FF40C73A9
:10510000D26A00FB032003F061BC45F2D462C1F215
:10511000000212684FF40C73D26A10FB032003F0F4
:1051200039BE45F2D462C1F2000212684FF40C732A
:10513000D26A00FB032005F0C3BF0146082026F019
:10514000BAB90146062026F0B6B90146072026F076
:10515000B2B90146092026F0AEB9042071460842D2
:1051600002D0EFF3098001E0EFF308808169FFF7D7
:10517000ECBF052026F087B90B2026F084B9042067
:105180007146084202D0EFF3098001E0EFF3088096
:105190008169FFF7DEBF70B543F6C064C1F2000459
:1051A00020464FF4A871FCF7ADFF40F2FF10C0F2AB
:1051B000023020644FF6FF700125A4F8610004F16D
:1051C0007000902184F85450FCF79CFF002604F5F1
:1051D000967084F8286184F8296184F82A610EF0B9
:1051E00030F94FF47A70C4F838014FF4C8704FF4B6
:1051F0002F716423C4E9500140F2657040F200024F
:1052000084F83061A4F83251C0F60300C0F60202FF
:105210002146C4F84831BDE87040FCF7FBBD2DE9DC
:10522000F0474FF0000A0446C0F8C4A0EC30122149
:1052300004F5807504F5B278FCF764FF2846602118
:10524000FCF760FF404600F0D7FD04F5B87948460A
:1052500000F0D2FD04F5BE76304600F0CDFD04F539
:10526000C477384600F0C8FD04F5CA75284600F03A
:10527000C3FD4046642105F057FE4846642105F011
:1052800053FE3046642105F04FFE3846642105F098
:105290004BFE2846642105F047FE404600F037FEED
:1052A000304600F034FE484600F031FE384600F04B
:1052B0002EFE284600F02BFE04F5D07000210022BF
:1052C000002300F0A6FE201D07F049FF04F1640052
:1052D00007F045FF0B2004F50675A4F808022846E0
:1052E000A4F824A284F80AA200F086FD04F503764F
:1052F000304600F081FD284641F2883105F014FE69
:10530000304641F2883105F00FFE284600F0FFFDDF
:10531000304600F0FCFD04F1CC00202104F51175AD
:1053200084F826A284F8C8A0FCF7ECFE28462821C1
:10533000FCF7E8FEFF2084F86802BDE8F08790EDF6
:105340004A0A00F5D070BDEEC00A10EE101A00F047
:105350007FBEB0B54FF40C710446FCF7D3FE4FF09E
:105360007E50606040F20110A4F800014BF2B000E2
:10537000A4F81C01002504F5907084F80451C4E9D8
:105380004255C4E9445500F037FD04F5A27000F021
:1053900033FD04F596701421FCF7B4FE04F5B870E3
:1053A0002A21C4F8A45184F8A851FCF789FE0AF018
:1053B00051FF0020C4F2C8204DF20A7147F2A40246
:1053C00004F5AC73C3F62341C3F67D7227C384F89A
:1053D0006851C4F86C51B0BDB0B52DED0A8B0D46C7
:1053E00091F82410012202FA01F100EE101AB8EE31
:1053F000C00AB7EE008A88EE009AA96904460160E7
:1054000095ED000A95ED033A95ED011A95ED022A06
:10541000142120EE09AA29EE030A80ED01AA80EDED
:10542000040A143029EE02BA29EE01CAFCF76AFE1A
:1054300028699FED252AA06295ED070A95ED081AC7
:1054400029EE000A84ED0D0A29EE010A84ED0E0A08
:105450009FED1E0AB2EE041A2BEE000A2AEE011A84
:1054600031EE001A80EE011A696900202CEE022A42
:10547000B5EE400A9FED163AC4E9141084ED032AF4
:10548000F1EE10FA4FF00001B5EE40AAA06584F8E5
:105490005C0084ED020A38EE412A18BF0121F1EECA
:1054A00010FA18BF012020EE020AB0EE432A08408D
:1054B0001CBFB0EE412AB0EE403A84ED0B2A84EDD9
:1054C0000C3ABDEC0A8BB0BD6F12033A00007A446F
:1054D0000000000090ED081A90ED033A90ED094AA3
:1054E00031EE005A23EE055A90ED0A3A90ED012A6A
:1054F00035EE044AB4EE434A22EE002AF1EE10FAE9
:1055000080ED094A06DCB1EE433AB4EE434AF1EECF
:1055100010FA03DAB0EE434A80ED093A32EE042A7B
:1055200090ED074A90ED0B5A90ED0C6A30EE411A5F
:1055300025EE044A26EE011A90ED003A31EE041AE7
:1055400032EE014A90ED142A80ED071A34EE031A68
:10555000B4EE421AF1EE10FA80ED080A02DDB0EE68
:10556000421A08E0B1EE420AB4EE401AF1EE10FA27
:10557000B8BFB0EE401A90F85C10B0EE410A0139A5
:1055800003292ED8DFE801F0021D0B1490ED160A56
:1055900090ED152A9FED193A9FED194A19E090ED0B
:1055A000160A90ED152A9FED113A9FED114A10E071
:1055B00090ED160A90ED152A9FED123A9FED124AD2
:1055C00007E090ED160A90ED152A9FED0A3A9FED3F
:1055D0000A4A31EE000A20EE030A22EE042A32EED5
:1055E000000A80ED150A80ED161A70471F4C243B07
:1055F00068B77E3F75B2613B9B3C7E3F72FA183CB8
:105600002C387B3F8F90CD3A6F327F3F2DE9F047AA
:10561000044602F0D7FD204603F0D2FF94F85F0065
:1056200020B12046BDE8F04702F0F0BA94F86810C7
:10563000FF2904D1002084F85F00BDE8F087D4F88A
:105640000080E26E98F800A047F230539A4218DAD0
:10565000606890F80080501CE066C81E01220B288C
:1056600084F85F2000F26D80DFE800F00706860610
:10567000067E82768A7A8E72DCE7204605F034FF59
:1056800085E0FE2921D1BAF1000F53D0A1686269EB
:1056900000234FF42D7E4FF40C7C5546CE5C16FB58
:1056A0000E2696F86872062F0CD106F51375E6687B
:1056B000A769F65C686916FB0C76F063A86930642C
:1056C00098F800500133AB42E8D3FF2084F868001B
:1056D0004FF00B080020BAF1000F84F85A8084F8CC
:1056E0005F0025D000274FF42D794FF40C7600BFD2
:1056F000D4E90201D4E90523C05D10FB092080F83C
:105700000882C85D002110FB063000F064FFE068ED
:10571000A169C05D10FB061000F0D3FBE068A16931
:10572000C05D10FB061000F09BFF0137BA45DFD1CA
:10573000BDE8F087FF2084F868000B2084F85A0049
:1057400078E7FE297FF476AF204607F0C7F81EE021
:10575000204606F011FC1AE0204606F06DFA16E02D
:10576000204606F0D1FB12E0204605F0FBFE0EE0DD
:10577000204606F027F80AE0204605F0D1FE06E0B4
:10578000204606F001FB02E0204606F0D9FB002887
:1057900084F85F0008BFBDE8F087B8F1000F0ED0B5
:1057A00000274C262069E169C05D10FB061003F05C
:1057B00000FF00283FF43EAF0137B845F2D1FF208B
:1057C00084F86800204602F0FDFC0020BAF1000FCA
:1057D00084F85A000DD0A16862694FF42D7300BFA0
:1057E00011F8017BBAF1010A17FB032787F80802B9
:1057F000F6D120460121BDE8F04705F081B8000050
:105800002DE9F04F81B0054615F0FEFD04219822E8
:105810002B46982615F002FE04461DB305FB06FB39
:1058200000264FF00B084FF001094FF0FF0A002748
:10583000E51905F114002021E651C5E90166EE6085
:10584000FCF760FC05F134002021C5F85A80FCF714
:1058500059FC9837BB45A5F85E90A5F8616085F8BE
:1058600068A0E5D1204601B0BDE8F08F2DE9F047F2
:10587000044690F8FD001546217050B19FED571A6F
:105880009FED573A9FED572ADFED570A9FED570AD4
:1058900013E095ED1F1A95ED1E0A95ED202A95ED62
:1058A000213AF8EEC10A95ED251AB8EEC00AB8EE15
:1058B000C22AB8EEC33AB8EEC11A04F1EC0084ED86
:1058C000400AC4ED410A84ED422A84ED433A80EC5B
:1058D000030A95ED222A49F28060C4F61830C4F814
:1058E000F80084ED562AD5F88C00B7EE003AC4F8DB
:1058F0005C01D5F89000DFED3F1A83EE023AC4F860
:105900005401B5EE402A04F5D0709FED394AF1EE0E
:1059100010FA08BFB0EE443A84ED583A03F0C8FFDD
:10592000B5F8BC1004F5BE79484605F0FDFAB5F8A7
:10593000BE1004F5CA78404605F0F6FAB5F8C01076
:1059400004F5C47A504605F0EFFAB5F8C21004F534
:10595000B877384605F0E8FAB5F8C41004F5B27621
:10596000304605F0E1FA484600F0D1FA384600F03A
:10597000CEFA504600F0CBFA404600F0C8FA304666
:1059800000F0C5FA0020C4F86001D5F8D000C4F8D2
:10599000C40095F8D40084F8C800E8B1D5F8E01048
:1059A000D5E93602C4F8D410C4E93302D5F8EC10B6
:1059B000D5E93902C4F8E010C4E93602D5F8F000A0
:1059C000C4F8E400D5F8F41004F51B70C4F8E8102E
:1059D000BDE8F0470AF04BB8BDE8F087000080460C
:1059E0005575D8465575D8C65555D5465555D5C65D
:1059F000000000008096184B2DE9F04188B08170BE
:105A00000446106D4FF0FF31606092F86500154656
:105A1000C0F340002074506DB0F1FF3FC8BF0121BA
:105A2000616592ED1A0A92ED051A84ED160AB2F834
:105A30007200BDEEC11A6082506FE063906F206407
:105A4000906D84ED1B1AE065B2F96000A067B2F9B1
:105A50005C10B2F95E20B5F97000E2676278C4F8B4
:105A60008010022A81B200F0B980012A40F0D4806F
:105A700008B2B0F5FA4FA8BF4FF4FA40A061A5F8FC
:105A80007000002084F8500195F86500C0F3800094
:105A900084F8500195F86510CA0704D0023084F8E4
:105AA000500195F865100A0704D5083084F85001B4
:105AB00095F865108A0705D540F0040084F8500178
:105AC00095F86510CA0604D5103084F8500195F891
:105AD0006510490644BF203084F85001686DB2EE6D
